{
  "contracts/Battleship.sol": {
    "Battleship": {
      "abi": [
        {
          "inputs": [
            {
              "components": [
                {
                  "internalType": "string",
                  "name": "name",
                  "type": "string"
                },
                {
                  "internalType": "uint8[2]",
                  "name": "size",
                  "type": "uint8[2]"
                }
              ],
              "internalType": "struct Battleship.ShipType[]",
              "name": "_shipTypes",
              "type": "tuple[]"
            }
          ],
          "stateMutability": "nonpayable",
          "type": "constructor"
        },
        {
          "inputs": [
            {
              "internalType": "address",
              "name": "owner",
              "type": "address"
            }
          ],
          "name": "OwnableInvalidOwner",
          "type": "error"
        },
        {
          "inputs": [
            {
              "internalType": "address",
              "name": "account",
              "type": "address"
            }
          ],
          "name": "OwnableUnauthorizedAccount",
          "type": "error"
        },
        {
          "anonymous": false,
          "inputs": [
            {
              "indexed": true,
              "internalType": "uint256",
              "name": "roundId",
              "type": "uint256"
            }
          ],
          "name": "GameStart",
          "type": "event"
        },
        {
          "anonymous": false,
          "inputs": [
            {
              "indexed": true,
              "internalType": "uint256",
              "name": "roundId",
              "type": "uint256"
            },
            {
              "indexed": true,
              "internalType": "address",
              "name": "opponent",
              "type": "address"
            }
          ],
          "name": "Hit",
          "type": "event"
        },
        {
          "anonymous": false,
          "inputs": [
            {
              "indexed": true,
              "internalType": "uint256",
              "name": "roundId",
              "type": "uint256"
            },
            {
              "indexed": true,
              "internalType": "address",
              "name": "sender",
              "type": "address"
            }
          ],
          "name": "NewGame",
          "type": "event"
        },
        {
          "anonymous": false,
          "inputs": [
            {
              "indexed": true,
              "internalType": "address",
              "name": "previousOwner",
              "type": "address"
            },
            {
              "indexed": true,
              "internalType": "address",
              "name": "newOwner",
              "type": "address"
            }
          ],
          "name": "OwnershipTransferred",
          "type": "event"
        },
        {
          "anonymous": false,
          "inputs": [
            {
              "indexed": true,
              "internalType": "uint256",
              "name": "roundId",
              "type": "uint256"
            },
            {
              "indexed": true,
              "internalType": "address",
              "name": "sender",
              "type": "address"
            }
          ],
          "name": "P2Joined",
          "type": "event"
        },
        {
          "anonymous": false,
          "inputs": [
            {
              "indexed": true,
              "internalType": "uint256",
              "name": "roundId",
              "type": "uint256"
            },
            {
              "indexed": true,
              "internalType": "address",
              "name": "sender",
              "type": "address"
            },
            {
              "indexed": false,
              "internalType": "uint8[2]",
              "name": "hitRC",
              "type": "uint8[2]"
            },
            {
              "indexed": false,
              "internalType": "enum Battleship.GameState",
              "name": "gameState",
              "type": "uint8"
            }
          ],
          "name": "PlayerMove",
          "type": "event"
        },
        {
          "anonymous": false,
          "inputs": [
            {
              "indexed": true,
              "internalType": "uint256",
              "name": "roundId",
              "type": "uint256"
            },
            {
              "indexed": true,
              "internalType": "address",
              "name": "sender",
              "type": "address"
            },
            {
              "indexed": false,
              "internalType": "uint8",
              "name": "shipId",
              "type": "uint8"
            }
          ],
          "name": "SetupShip",
          "type": "event"
        },
        {
          "anonymous": false,
          "inputs": [
            {
              "indexed": true,
              "internalType": "uint256",
              "name": "roundId",
              "type": "uint256"
            },
            {
              "indexed": true,
              "internalType": "address",
              "name": "opponent",
              "type": "address"
            },
            {
              "indexed": false,
              "internalType": "uint8",
              "name": "shipId",
              "type": "uint8"
            }
          ],
          "name": "SinkShip",
          "type": "event"
        },
        {
          "inputs": [
            {
              "internalType": "uint256",
              "name": "",
              "type": "uint256"
            }
          ],
          "name": "boardSize",
          "outputs": [
            {
              "internalType": "uint8",
              "name": "",
              "type": "uint8"
            }
          ],
          "stateMutability": "view",
          "type": "function"
        },
        {
          "inputs": [],
          "name": "getAllRounds",
          "outputs": [
            {
              "components": [
                {
                  "internalType": "address",
                  "name": "p1",
                  "type": "address"
                },
                {
                  "internalType": "address",
                  "name": "p2",
                  "type": "address"
                },
                {
                  "internalType": "enum Battleship.GameState",
                  "name": "state",
                  "type": "uint8"
                },
                {
                  "internalType": "uint256",
                  "name": "startTime",
                  "type": "uint256"
                },
                {
                  "internalType": "uint256",
                  "name": "lastUpdate",
                  "type": "uint256"
                },
                {
                  "internalType": "uint256",
                  "name": "endTime",
                  "type": "uint256"
                }
              ],
              "internalType": "struct Battleship.GameRoundView[]",
              "name": "",
              "type": "tuple[]"
            }
          ],
          "stateMutability": "view",
          "type": "function"
        },
        {
          "inputs": [],
          "name": "getBoardSize",
          "outputs": [
            {
              "internalType": "uint8[2]",
              "name": "",
              "type": "uint8[2]"
            }
          ],
          "stateMutability": "view",
          "type": "function"
        },
        {
          "inputs": [
            {
              "internalType": "uint64",
              "name": "roundId",
              "type": "uint64"
            }
          ],
          "name": "getRound",
          "outputs": [
            {
              "components": [
                {
                  "internalType": "address",
                  "name": "p1",
                  "type": "address"
                },
                {
                  "internalType": "address",
                  "name": "p2",
                  "type": "address"
                },
                {
                  "internalType": "enum Battleship.GameState",
                  "name": "state",
                  "type": "uint8"
                },
                {
                  "internalType": "uint256",
                  "name": "startTime",
                  "type": "uint256"
                },
                {
                  "internalType": "uint256",
                  "name": "lastUpdate",
                  "type": "uint256"
                },
                {
                  "internalType": "uint256",
                  "name": "endTime",
                  "type": "uint256"
                }
              ],
              "internalType": "struct Battleship.GameRoundView",
              "name": "",
              "type": "tuple"
            }
          ],
          "stateMutability": "view",
          "type": "function"
        },
        {
          "inputs": [
            {
              "internalType": "uint64",
              "name": "roundId",
              "type": "uint64"
            },
            {
              "internalType": "address",
              "name": "p",
              "type": "address"
            }
          ],
          "name": "getRoundMoves",
          "outputs": [
            {
              "internalType": "uint8[2][]",
              "name": "",
              "type": "uint8[2][]"
            }
          ],
          "stateMutability": "view",
          "type": "function"
        },
        {
          "inputs": [
            {
              "internalType": "uint64",
              "name": "roundId",
              "type": "uint64"
            },
            {
              "internalType": "address",
              "name": "p",
              "type": "address"
            }
          ],
          "name": "getRoundShips",
          "outputs": [
            {
              "components": [
                {
                  "internalType": "uint64",
                  "name": "body",
                  "type": "uint64"
                },
                {
                  "internalType": "uint8[2]",
                  "name": "topLeft",
                  "type": "uint8[2]"
                },
                {
                  "internalType": "uint8[2]",
                  "name": "bottomRight",
                  "type": "uint8[2]"
                },
                {
                  "internalType": "bool",
                  "name": "alive",
                  "type": "bool"
                }
              ],
              "internalType": "struct Battleship.Ship[]",
              "name": "",
              "type": "tuple[]"
            }
          ],
          "stateMutability": "view",
          "type": "function"
        },
        {
          "inputs": [],
          "name": "getShipTypeNum",
          "outputs": [
            {
              "internalType": "uint8",
              "name": "",
              "type": "uint8"
            }
          ],
          "stateMutability": "view",
          "type": "function"
        },
        {
          "inputs": [],
          "name": "getShipTypes",
          "outputs": [
            {
              "components": [
                {
                  "internalType": "string",
                  "name": "name",
                  "type": "string"
                },
                {
                  "internalType": "uint8[2]",
                  "name": "size",
                  "type": "uint8[2]"
                }
              ],
              "internalType": "struct Battleship.ShipType[]",
              "name": "",
              "type": "tuple[]"
            }
          ],
          "stateMutability": "view",
          "type": "function"
        },
        {
          "inputs": [],
          "name": "newGame",
          "outputs": [],
          "stateMutability": "nonpayable",
          "type": "function"
        },
        {
          "inputs": [],
          "name": "nextRoundId",
          "outputs": [
            {
              "internalType": "uint64",
              "name": "",
              "type": "uint64"
            }
          ],
          "stateMutability": "view",
          "type": "function"
        },
        {
          "inputs": [],
          "name": "owner",
          "outputs": [
            {
              "internalType": "address",
              "name": "",
              "type": "address"
            }
          ],
          "stateMutability": "view",
          "type": "function"
        },
        {
          "inputs": [
            {
              "internalType": "uint64",
              "name": "roundId",
              "type": "uint64"
            }
          ],
          "name": "p2join",
          "outputs": [],
          "stateMutability": "nonpayable",
          "type": "function"
        },
        {
          "inputs": [
            {
              "internalType": "uint64",
              "name": "roundId",
              "type": "uint64"
            },
            {
              "internalType": "uint8[2]",
              "name": "hitRC",
              "type": "uint8[2]"
            }
          ],
          "name": "playerMove",
          "outputs": [],
          "stateMutability": "nonpayable",
          "type": "function"
        },
        {
          "inputs": [],
          "name": "renounceOwnership",
          "outputs": [],
          "stateMutability": "nonpayable",
          "type": "function"
        },
        {
          "inputs": [
            {
              "internalType": "uint256",
              "name": "",
              "type": "uint256"
            }
          ],
          "name": "rounds",
          "outputs": [
            {
              "internalType": "address",
              "name": "p1",
              "type": "address"
            },
            {
              "internalType": "address",
              "name": "p2",
              "type": "address"
            },
            {
              "internalType": "enum Battleship.GameState",
              "name": "state",
              "type": "uint8"
            },
            {
              "internalType": "uint256",
              "name": "startTime",
              "type": "uint256"
            },
            {
              "internalType": "uint256",
              "name": "lastUpdate",
              "type": "uint256"
            },
            {
              "internalType": "uint256",
              "name": "endTime",
              "type": "uint256"
            }
          ],
          "stateMutability": "view",
          "type": "function"
        },
        {
          "inputs": [
            {
              "internalType": "uint64",
              "name": "roundId",
              "type": "uint64"
            },
            {
              "internalType": "uint8",
              "name": "shipId",
              "type": "uint8"
            },
            {
              "internalType": "uint8[2]",
              "name": "topLeft",
              "type": "uint8[2]"
            },
            {
              "internalType": "uint8[2]",
              "name": "bottomRight",
              "type": "uint8[2]"
            }
          ],
          "name": "setupShips",
          "outputs": [],
          "stateMutability": "nonpayable",
          "type": "function"
        },
        {
          "inputs": [
            {
              "internalType": "uint256",
              "name": "",
              "type": "uint256"
            }
          ],
          "name": "shipTypes",
          "outputs": [
            {
              "internalType": "string",
              "name": "name",
              "type": "string"
            }
          ],
          "stateMutability": "view",
          "type": "function"
        },
        {
          "inputs": [
            {
              "internalType": "uint64",
              "name": "roundId",
              "type": "uint64"
            }
          ],
          "name": "startGame",
          "outputs": [],
          "stateMutability": "nonpayable",
          "type": "function"
        },
        {
          "inputs": [
            {
              "internalType": "address",
              "name": "newOwner",
              "type": "address"
            }
          ],
          "name": "transferOwnership",
          "outputs": [],
          "stateMutability": "nonpayable",
          "type": "function"
        }
      ],
      "evm": {
        "bytecode": {
          "linkReferences": {},
          "object": "60c06040526009608081815260a0919091526200002090600290816200017b565b50600480546001600160401b03191690553480156200003e57600080fd5b506040516200334438038062003344833981016040819052620000619162000307565b33806200008857604051631e4fbdf760e01b81526000600482015260240160405180910390fd5b62000093816200012b565b5060005b81518160ff16101562000123576001828260ff1681518110620000be57620000be6200048f565b60209081029190910181015182546001810184556000938452919092208251600290920201908190620000f2908262000536565b5060208201516200010a90600183019060026200017b565b50505080806200011a9062000602565b91505062000097565b505062000630565b600080546001600160a01b038381166001600160a01b0319831681178455604051919092169283917f8be0079c531659141344cd1fd0a4f28419497f9722a3daafe3b4186f6b6457e09190a35050565b600183019183908215620002035791602002820160005b83821115620001d257835183826101000a81548160ff021916908360ff160217905550926020019260010160208160000104928301926001030262000192565b8015620002015782816101000a81549060ff0219169055600101602081600001049283019260010302620001d2565b505b506200021192915062000215565b5090565b5b8082111562000211576000815560010162000216565b634e487b7160e01b600052604160045260246000fd5b604080519081016001600160401b03811182821017156200026757620002676200022c565b60405290565b604051601f8201601f191681016001600160401b03811182821017156200029857620002986200022c565b604052919050565b600082601f830112620002b257600080fd5b620002bc62000242565b806040840185811115620002cf57600080fd5b845b81811015620002fc57805160ff81168114620002ed5760008081fd5b845260209384019301620002d1565b509095945050505050565b600060208083850312156200031b57600080fd5b82516001600160401b03808211156200033357600080fd5b818501915085601f8301126200034857600080fd5b8151818111156200035d576200035d6200022c565b8060051b6200036e8582016200026d565b91825283810185019185810190898411156200038957600080fd5b86860192505b838310156200048257825185811115620003a857600080fd5b8601601f196060828d0382011215620003c057600080fd5b620003ca62000242565b8983015188811115620003dc57600080fd5b8301603f81018e13620003ee57600080fd5b8a810151898111156200040557620004056200022c565b620004178c85601f840116016200026d565b93508084528e60408284010111156200042f57600080fd5b60005b818110156200045057828101604001518582018e01528c0162000432565b5060009084018c0152508181526200046c8d60408501620002a0565b818b01528452505091860191908601906200038f565b9998505050505050505050565b634e487b7160e01b600052603260045260246000fd5b600181811c90821680620004ba57607f821691505b602082108103620004db57634e487b7160e01b600052602260045260246000fd5b50919050565b601f82111562000531576000816000526020600020601f850160051c810160208610156200050c5750805b601f850160051c820191505b818110156200052d5782815560010162000518565b5050505b505050565b81516001600160401b038111156200055257620005526200022c565b6200056a81620005638454620004a5565b84620004e1565b602080601f831160018114620005a25760008415620005895750858301515b600019600386901b1c1916600185901b1785556200052d565b600085815260208120601f198616915b82811015620005d357888601518255948401946001909101908401620005b2565b5085821015620005f25787850151600019600388901b60f8161c191681555b5050505050600190811b01905550565b600060ff821660ff81036200062757634e487b7160e01b600052601160045260246000fd5b60010192915050565b612d0480620006406000396000f3fe608060405234801561001057600080fd5b50600436106101215760003560e01c8063715018a6116100ad5780638da5cb5b116100715780638da5cb5b1461027d578063bbf3fa8b14610298578063e452b4aa146102ab578063e5066bbf146102cb578063f2fde38b146102e057600080fd5b8063715018a6146102205780637425039e146102285780637d03f5f31461023b57806381f41721146102435780638c65c81f1461025857600080fd5b80634002eda6116100f45780634002eda61461018c57806343dcb1fb146101b75780634861c57b146101cd5780634ad25a33146101ed578063605aa4991461020d57600080fd5b80630704df53146101265780630e9ec7b11461013b578063144d02291461014e5780631668dbc314610177575b600080fd5b6101396101343660046125a4565b6102f3565b005b6101396101493660046125d8565b6109b2565b61016161015c3660046125d8565b610b30565b60405161016e9190612681565b60405180910390f35b61017f610c3d565b60405161016e91906126c1565b60045461019f906001600160401b031681565b6040516001600160401b03909116815260200161016e565b6001545b60405160ff909116815260200161016e565b6101e06101db3660046126e6565b610c93565b60405161016e9190612710565b6102006101fb366004612793565b610e28565b60405161016e91906127f2565b6101bb61021b366004612793565b610ede565b610139610f08565b610139610236366004612805565b610f1c565b610139611623565b61024b6116ed565b60405161016e919061285b565b61026b610266366004612793565b611833565b60405161016e969594939291906128dd565b6000546040516001600160a01b03909116815260200161016e565b6101396102a63660046125d8565b61188a565b6102be6102b93660046126e6565b611b0a565b60405161016e919061291f565b6102d3611c05565b60405161016e919061295f565b6101396102ee3660046129ad565b611d7c565b60045482906001600160401b039081169082161061032c5760405162461bcd60e51b8152600401610323906129c8565b60405180910390fd5b8260006003826001600160401b03168154811061034b5761034b6129ff565b6000918252602090912060089091020190506002600482015460ff166005811115610378576103786125fa565b148061039c57506003600482015460ff16600581111561039a5761039a6125fa565b145b6104025760405162461bcd60e51b815260206004820152603160248201527f43757272656e742067616d6520646f65736e277420616c6c6f772065697468656044820152707220706c617965727320746f206d6f766560781b6064820152608401610323565b6002600482015460ff16600581111561041d5761041d6125fa565b0361047b5780546001600160a01b0316331461047b5760405162461bcd60e51b815260206004820152601a60248201527f457870656374696e6720706c61796572203120746f206d6f76650000000000006044820152606401610323565b6003600482015460ff166005811115610496576104966125fa565b036104f75760018101546001600160a01b031633146104f75760405162461bcd60e51b815260206004820152601a60248201527f457870656374696e6720706c61796572203220746f206d6f76650000000000006044820152606401610323565b600254845160ff91821691161080156105215750600254602085015160ff61010090920482169116105b61056d5760405162461bcd60e51b815260206004820152601b60248201527f506c61796572206d6f7665206973206f7574206f6620626f756e6400000000006044820152606401610323565b60006003866001600160401b03168154811061058b5761058b6129ff565b6000918252602080832033845260026008909302018281018252604084208054600181018255818652929094209094506105c9929101908890612417565b5081546000906001600160a01b031633146105ee5782546001600160a01b03166105fd565b60018301546001600160a01b03165b6001600160a01b038116600090815260038501602052604081209192505b60015460ff168160ff1610156108d9576000828260ff1681548110610642576106426129ff565b600091825260209091208b51600490920201600181015490925060ff91821691161180159061067d575060028101548a5160ff918216911611155b801561069f575060208a0151600182015460ff91821661010090910490911611155b80156106bf5750600281015460208b015160ff6101009092048216911611155b156108d057600181015460028201546000916106ea9160ff6101009283900481169290910416612a2b565b6106f5906001612a44565b600183015460208d015191925060009161071791610100900460ff1690612a2b565b60018401548d51849161072f9160ff90911690612a2b565b6107399190612a5d565b6107439190612a44565b9050600060018260018760ff1681548110610760576107606129ff565b9060005260206000209060020201600101600160028110610783576107836129ff565b602091828204019190069054906101000a900460ff1660018860ff16815481106107af576107af6129ff565b60009182526020909120600160029092020101546107d0919060ff16612a5d565b6107da9190612a2b565b6107e49190612a2b565b845467ffffffffffffffff198116600160ff84161b199182166001600160401b03169081178755919250901561085957876001600160a01b03168f6001600160401b03167f19adf9c66a801086f5c715dfac5ee479e14c363f3d444f787e0c3fe18c13bfae60405160405180910390a36108cb565b60008560030160006101000a81548160ff021916908315150217905550876001600160a01b03168f6001600160401b03167f133284751d2ec7c1aaf7c6e9d144ffb554c59373f20f3d9e580c4e7e2b234ba7886040516108c2919060ff91909116815260200190565b60405180910390a35b505050505b5060010161061b565b506108e389611dba565b15610923576002600485015460ff166005811115610903576109036125fa565b03610918576109138960046121dc565b610959565b6109138960056121dc565b6002600485015460ff16600581111561093e5761093e6125fa565b0361094e576109138960036121dc565b6109598960026121dc565b600484015460405133916001600160401b038c16917f79536d7b8556fa0694117f3c2589cf363474fac9463255a9d55977f160b9fec99161099f918d9160ff1690612a79565b60405180910390a3505050505050505050565b60045481906001600160401b03908116908216106109e25760405162461bcd60e51b8152600401610323906129c8565b816000806003836001600160401b031681548110610a0257610a026129ff565b600091825260209091206004600890920201015460ff166005811115610a2a57610a2a6125fa565b14610a475760405162461bcd60e51b815260040161032390612a94565b60006003856001600160401b031681548110610a6557610a656129ff565b600091825260209091206008909102018054909150336001600160a01b0390911603610ad35760405162461bcd60e51b815260206004820152601e60248201527f43616e6e6f74206265207468652073616d6520617320706c61796572203100006044820152606401610323565b600180820180546001600160a01b03191633179055610af39086906121dc565b60405133906001600160401b038716907fb334b0a7504e06441f9200d62e86895a4abed0cb05c186263a990dacaf67297690600090a35050505050565b610b696040805160c081018252600080825260208201819052909182019081526020016000815260200160008152602001600081525090565b60045482906001600160401b0390811690821610610b995760405162461bcd60e51b8152600401610323906129c8565b60006003846001600160401b031681548110610bb757610bb76129ff565b60009182526020918290206040805160c081018252600890930290910180546001600160a01b03908116845260018201541693830193909352600483015492935090919082019060ff166005811115610c1257610c126125fa565b8152602001826005015481526020018260060154815260200182600701548152509250505b50919050565b610c456124aa565b6040805180820191829052906002908190816000855b825461010083900a900460ff16815260206001928301818104948501949093039092029101808411610c5b5790505050505050905090565b60045460609083906001600160401b0390811690821610610cc65760405162461bcd60e51b8152600401610323906129c8565b6003846001600160401b031681548110610ce257610ce26129ff565b600091825260208083206001600160a01b03871684526003600890930201919091018152604080832080548251818502810185019093528083529193909284015b82821015610e1a5760008481526020808220604080516080810182526004870290920180546001600160401b0316835281518083019283905292949093850192916001850191600291908390855b825461010083900a900460ff16815260206001928301818104948501949093039092029101808411610d7157505050928452505060408051808201918290526020909301929150600284810191826000855b825461010083900a900460ff16815260206001928301818104948501949093039092029101808411610dc3575050509284525050506003919091015460ff1615156020918201529082526001929092019101610d23565b5050505091505b5092915050565b60018181548110610e3857600080fd5b9060005260206000209060020201600091509050806000018054610e5b90612ad7565b80601f0160208091040260200160405190810160405280929190818152602001828054610e8790612ad7565b8015610ed45780601f10610ea957610100808354040283529160200191610ed4565b820191906000526020600020905b815481529060010190602001808311610eb757829003601f168201915b5050505050905081565b60028160028110610eee57600080fd5b60209182820401919006915054906101000a900460ff1681565b610f1061239a565b610f1a60006123c7565b565b60045484906001600160401b0390811690821610610f4c5760405162461bcd60e51b8152600401610323906129c8565b846001806003836001600160401b031681548110610f6c57610f6c6129ff565b600091825260209091206004600890920201015460ff166005811115610f9457610f946125fa565b14610fb15760405162461bcd60e51b815260040161032390612a94565b8660006003826001600160401b031681548110610fd057610fd06129ff565b6000918252602090912060089091020180549091506001600160a01b0316331480611007575060018101546001600160a01b031633145b6110535760405162461bcd60e51b815260206004820152601b60248201527f4e6f74206f6e65206f66207468652067616d6520706c617965727300000000006044820152606401610323565b60015460ff168860ff16106110a35760405162461bcd60e51b81526020600482015260166024820152751cda1a5c1259081a5cc81bdd5d081bd988189bdd5b9960521b6044820152606401610323565b8551875160ff918216911611156111105760405162461bcd60e51b815260206004820152602b60248201527f746f704c65667420726f772069732067726561746572207468616e20626f747460448201526a6f6d526967687420726f7760a81b6064820152608401610323565b6020808701519088015160ff918216911611156111835760405162461bcd60e51b815260206004820152602b60248201527f746f704c65667420636f6c2069732067726561746572207468616e20626f747460448201526a1bdb549a59da1d0818dbdb60aa1b6064820152608401610323565b600254865160ff9182169116106111e85760405162461bcd60e51b8152602060048201526024808201527f7368697020697320706c61636564206f7574206f6620626f756e6420286f6e20604482015263726f772960e01b6064820152608401610323565b600254602087015160ff61010090920482169116106112595760405162461bcd60e51b815260206004820152602760248201527f7368697020697320706c61636564206f7574206f6620626f756e6420286f6e20604482015266636f6c756d6e2960c81b6064820152608401610323565b600060018960ff1681548110611271576112716129ff565b6000918252602082208a518a51600293909302909101600101935061129591612a2b565b6112a0906001612a44565b6020808b0151908a01519192506000916112ba9190612a2b565b6112c5906001612a44565b835490915060ff83811691161480156112e95750825460ff82811661010090920416145b806113105750825460ff838116610100909204161480156113105750825460ff8281169116145b6113785760405162461bcd60e51b815260206004820152603360248201527f73686970207375626d69747465642073697a6520646f65736e2774206d61746360448201527268206974732065787065637465642073697a6560681b6064820152608401610323565b600060038d6001600160401b031681548110611396576113966129ff565b600091825260208083203384526003600890930201919091019052604081208054909250900361149d5760005b60015460ff168160ff16101561149b57604080516080810182526000808252825180840184528181526020808201839052808401918252845180860186528381528082018490529484019490945260608301829052855460018082018855878452949092208351600490930201805467ffffffffffffffff19166001600160401b039093169290921782555191929091611461918301906002612417565b5060408201516114779060028084019190612417565b50606091909101516003909101805460ff19169115159190911790556001016113c3565b505b83546001906114b69060ff610100820481169116612a5d565b6114c1906002612bef565b6114cb9190612bfe565b818d60ff16815481106114e0576114e06129ff565b906000526020600020906004020160000160006101000a8154816001600160401b0302191690836001600160401b031602179055508a818d60ff168154811061152b5761152b6129ff565b906000526020600020906004020160010190600261154a929190612417565b5089818d60ff1681548110611561576115616129ff565b9060005260206000209060040201600201906002611580929190612417565b506001818d60ff1681548110611598576115986129ff565b906000526020600020906004020160030160006101000a81548160ff021916908315150217905550336001600160a01b03168d6001600160401b03167f89b66467b6ee413d5148694c68c0180783631bef4ee184f6e47bd51882c87ab48e60405161160c919060ff91909116815260200190565b60405180910390a350505050505050505050505050565b6003805460018101825560009182526008027fc2575a0e9e593c00f959f8c92f12db2869c3395a3b0502d05e2516446f71f85b0180546001600160a01b03191633178155600480549192916001600160401b0316908261168283612c1e565b91906101000a8154816001600160401b0302191690836001600160401b0316021790555090506116b38160006121dc565b60405133906001600160401b038316907fb4ab36f4d2fee8698466065c4ee831b4748994cdd8de1c10a834a1d9b945233790600090a35050565b60606001805480602002602001604051908101604052809291908181526020016000905b8282101561182a578382906000526020600020906002020160405180604001604052908160008201805461174490612ad7565b80601f016020809104026020016040519081016040528092919081815260200182805461177090612ad7565b80156117bd5780601f10611792576101008083540402835291602001916117bd565b820191906000526020600020905b8154815290600101906020018083116117a057829003601f168201915b50505091835250506040805180820191829052602090920191906001840190600290826000855b825461010083900a900460ff168152602060019283018181049485019490930390920291018084116117e457905050505050508152505081526020019060010190611711565b50505050905090565b6003818154811061184357600080fd5b60009182526020909120600890910201805460018201546004830154600584015460068501546007909501546001600160a01b039485169650939092169360ff9091169286565b60045481906001600160401b03908116908216106118ba5760405162461bcd60e51b8152600401610323906129c8565b816001806003836001600160401b0316815481106118da576118da6129ff565b600091825260209091206004600890920201015460ff166005811115611902576119026125fa565b1461191f5760405162461bcd60e51b815260040161032390612a94565b60006003856001600160401b03168154811061193d5761193d6129ff565b60009182526020909120600890910201805460018201549192506001600160a01b03908116911661196d60015490565b6001600160a01b038316600090815260038501602052604090205460ff91909116146119ab5760405162461bcd60e51b815260040161032390612c44565b6001546001600160a01b038216600090815260038501602052604090205460ff909116146119eb5760405162461bcd60e51b815260040161032390612c89565b60005b60015460ff16811015611ac1576001600160a01b03831660009081526003850160205260409020805482908110611a2757611a276129ff565b600091825260209091206003600490920201015460ff16611a5a5760405162461bcd60e51b815260040161032390612c44565b6001600160a01b03821660009081526003850160205260409020805482908110611a8657611a866129ff565b600091825260209091206003600490920201015460ff16611ab95760405162461bcd60e51b815260040161032390612c89565b6001016119ee565b50611acd8760026121dc565b6040516001600160401b038816907fb5e8a4470f7bcac7f2c0f3e23471bd7016a9f6f049884cd27dfa8960f361287b90600090a250505050505050565b60045460609083906001600160401b0390811690821610611b3d5760405162461bcd60e51b8152600401610323906129c8565b6003846001600160401b031681548110611b5957611b596129ff565b600091825260208083206001600160a01b03871684526002600890930201919091018152604080832080548251818502810185019093528083529193909284015b82821015610e1a5760008481526020812060408051808201918290529291850191600291908390855b825461010083900a900460ff16815260206001928301818104948501949093039092029101808411611bc3579050505050505081526020019060010190611b9a565b6003546060906000906001600160401b03811115611c2557611c256124f9565b604051908082528060200260200182016040528015611c8f57816020015b611c7c6040805160c081018252600080825260208201819052909182019081526020016000815260200160008152602001600081525090565b815260200190600190039081611c435790505b50905060005b6003546001600160401b0382161015610c375760006003826001600160401b031681548110611cc657611cc66129ff565b60009182526020918290206040805160c081018252600890930290910180546001600160a01b03908116845260018201541693830193909352600483015492935090919082019060ff166005811115611d2157611d216125fa565b81526020018260050154815260200182600601548152602001826007015481525083836001600160401b031681518110611d5d57611d5d6129ff565b6020026020010181905250508080611d7490612c1e565b915050611c95565b611d8461239a565b6001600160a01b038116611dae57604051631e4fbdf760e01b815260006004820152602401610323565b611db7816123c7565b50565b60045460009082906001600160401b0390811690821610611ded5760405162461bcd60e51b8152600401610323906129c8565b60006003846001600160401b031681548110611e0b57611e0b6129ff565b6000918252602082206008909102019150600482015460ff166005811115611e3557611e356125fa565b1480611e5957506001600482015460ff166005811115611e5757611e576125fa565b145b15611e68576000925050610c37565b60048082015460ff166005811115611e8257611e826125fa565b1480611ea657506005600482015460ff166005811115611ea457611ea46125fa565b145b15611eb5576001925050610c37565b80546001600160a01b031660009081526003820160209081526040808320805482518185028101850190935280835260019493849084015b82821015611fe45760008481526020808220604080516080810182526004870290920180546001600160401b0316835281518083019283905292949093850192916001850191600291908390855b825461010083900a900460ff16815260206001928301818104948501949093039092029101808411611f3b57505050928452505060408051808201918290526020909301929150600284810191826000855b825461010083900a900460ff16815260206001928301818104948501949093039092029101808411611f8d575050509284525050506003919091015460ff1615156020918201529082526001929092019101611eed565b50505060018501546001600160a01b0316600090815260038601602090815260408083208054825181850281018501909352808352959650929490935090849084015b8282101561211e5760008481526020808220604080516080810182526004870290920180546001600160401b0316835281518083019283905292949093850192916001850191600291908390855b825461010083900a900460ff1681526020600192830181810494850194909303909202910180841161207557505050928452505060408051808201918290526020909301929150600284810191826000855b825461010083900a900460ff168152602060019283018181049485019490930390920291018084116120c7575050509284525050506003919091015460ff1615156020918201529082526001929092019101612027565b50505050905060005b60015460ff168160ff16101561216e57828160ff168151811061214c5761214c6129ff565b60200260200101516060015115612166576000935061216e565b600101612127565b508215612182576001955050505050610c37565b6001925060005b60015460ff168160ff1610156121d057818160ff16815181106121ae576121ae6129ff565b602002602001015160600151156121c857600093506121d0565b600101612189565b50919695505050505050565b60045482906001600160401b039081169082161061220c5760405162461bcd60e51b8152600401610323906129c8565b8260006003826001600160401b03168154811061222b5761222b6129ff565b60009182526020909120600890910201905060048082015460ff166005811115612257576122576125fa565b1415801561227e57506005600482015460ff16600581111561227b5761227b6125fa565b14155b6122ca5760405162461bcd60e51b815260206004820152601760248201527f43757272656e742067616d652068617320656e6465642e0000000000000000006044820152606401610323565b60006003866001600160401b0316815481106122e8576122e86129ff565b90600052602060002090600802019050848160040160006101000a81548160ff0219169083600581111561231e5761231e6125fa565b0217905550426006820155600085600581111561233d5761233d6125fa565b036123515760068101546005820155612392565b6004856005811115612365576123656125fa565b148061238257506005856005811115612380576123806125fa565b145b1561239257600681015460078201555b505050505050565b6000546001600160a01b03163314610f1a5760405163118cdaa760e01b8152336004820152602401610323565b600080546001600160a01b038381166001600160a01b0319831681178455604051919092169283917f8be0079c531659141344cd1fd0a4f28419497f9722a3daafe3b4186f6b6457e09190a35050565b60018301918390821561249a5791602002820160005b8382111561246b57835183826101000a81548160ff021916908360ff160217905550926020019260010160208160000104928301926001030261242d565b80156124985782816101000a81549060ff021916905560010160208160000104928301926001030261246b565b505b506124a69291506124c8565b5090565b60405180604001604052806002906020820280368337509192915050565b5b808211156124a657600081556001016124c9565b80356001600160401b03811681146124f457600080fd5b919050565b634e487b7160e01b600052604160045260246000fd5b803560ff811681146124f457600080fd5b600082601f83011261253157600080fd5b604051604081018181106001600160401b038211171561256157634e487b7160e01b600052604160045260246000fd5b806040525080604084018581111561257857600080fd5b845b818110156125995761258b8161250f565b83526020928301920161257a565b509195945050505050565b600080606083850312156125b757600080fd5b6125c0836124dd565b91506125cf8460208501612520565b90509250929050565b6000602082840312156125ea57600080fd5b6125f3826124dd565b9392505050565b634e487b7160e01b600052602160045260246000fd5b6006811061262e57634e487b7160e01b600052602160045260246000fd5b9052565b60018060a01b0380825116835280602083015116602084015250604081015161265e6040840182612610565b50606081015160608301526080810151608083015260a081015160a08301525050565b60c0810161268f8284612632565b92915050565b8060005b60028110156126bb57815160ff16845260209384019390910190600101612699565b50505050565b6040810161268f8284612695565b80356001600160a01b03811681146124f457600080fd5b600080604083850312156126f957600080fd5b612702836124dd565b91506125cf602084016126cf565b602080825282518282018190526000919060409081850190868401855b828110156127865781516001600160401b0381511685528681015161275488870182612695565b5085810151606061276781880183612695565b9190910151151560a08601525060c0909301929085019060010161272d565b5091979650505050505050565b6000602082840312156127a557600080fd5b5035919050565b6000815180845260005b818110156127d2576020818501810151868301820152016127b6565b506000602082860101526020601f19601f83011685010191505092915050565b6020815260006125f360208301846127ac565b60008060008060c0858703121561281b57600080fd5b612824856124dd565b93506128326020860161250f565b92506128418660408701612520565b91506128508660808701612520565b905092959194509250565b6000602080830181845280855180835260408601915060408160051b870101925083870160005b828110156128d057603f198886030184528151606081518188526128a8828901826127ac565b9150508782015191506128bd88880183612695565b9550509285019290850190600101612882565b5092979650505050505050565b6001600160a01b0387811682528616602082015260c081016129026040830187612610565b8460608301528360808301528260a0830152979650505050505050565b602080825282518282018190526000919060409081850190868401855b828110156127865761294f848351612695565b928401929085019060010161293c565b6020808252825182820181905260009190848201906040850190845b818110156129a15761298e838551612632565b9284019260c0929092019160010161297b565b50909695505050505050565b6000602082840312156129bf57600080fd5b6125f3826126cf565b60208082526017908201527f726f756e644964206973206f7574206f6620626f756e64000000000000000000604082015260600190565b634e487b7160e01b600052603260045260246000fd5b634e487b7160e01b600052601160045260246000fd5b60ff828116828216039081111561268f5761268f612a15565b60ff818116838216019081111561268f5761268f612a15565b60ff8181168382160290811690818114610e2157610e21612a15565b60608101612a878285612695565b6125f36040830184612610565b60208082526023908201527f5468652067616d65206973206e6f7420696e206974732074617267657420737460408201526261746560e81b606082015260800190565b600181811c90821680612aeb57607f821691505b602082108103610c3757634e487b7160e01b600052602260045260246000fd5b600181815b80851115612b46578160001904821115612b2c57612b2c612a15565b80851615612b3957918102915b93841c9390800290612b10565b509250929050565b600082612b5d5750600161268f565b81612b6a5750600061268f565b8160018114612b805760028114612b8a57612ba6565b600191505061268f565b60ff841115612b9b57612b9b612a15565b50506001821b61268f565b5060208310610133831016604e8410600b8410161715612bc9575081810a61268f565b612bd38383612b0b565b8060001904821115612be757612be7612a15565b029392505050565b60006125f360ff841683612b4e565b6001600160401b03828116828216039080821115610e2157610e21612a15565b60006001600160401b03808316818103612c3a57612c3a612a15565b6001019392505050565b60208082526025908201527f706c61796572203120736869707320617265206e6f742070726f7065726c7920604082015264073657475760dc1b606082015260800190565b60208082526025908201527f706c61796572203220736869707320617265206e6f742070726f7065726c7920604082015264073657475760dc1b60608201526080019056fea2646970667358221220ac6c432c9c7484b318be4ff829212afbb3314cea2d711307e0d6ba1c61ec864664736f6c63430008180033",
          "opcodes": "PUSH1 0xC0 PUSH1 0x40 MSTORE PUSH1 0x9 PUSH1 0x80 DUP2 DUP2 MSTORE PUSH1 0xA0 SWAP2 SWAP1 SWAP2 MSTORE PUSH3 0x20 SWAP1 PUSH1 0x2 SWAP1 DUP2 PUSH3 0x17B JUMP JUMPDEST POP PUSH1 0x4 DUP1 SLOAD PUSH1 0x1 PUSH1 0x1 PUSH1 0x40 SHL SUB NOT AND SWAP1 SSTORE CALLVALUE DUP1 ISZERO PUSH3 0x3E JUMPI PUSH1 0x0 DUP1 REVERT JUMPDEST POP PUSH1 0x40 MLOAD PUSH3 0x3344 CODESIZE SUB DUP1 PUSH3 0x3344 DUP4 CODECOPY DUP2 ADD PUSH1 0x40 DUP2 SWAP1 MSTORE PUSH3 0x61 SWAP2 PUSH3 0x307 JUMP JUMPDEST CALLER DUP1 PUSH3 0x88 JUMPI PUSH1 0x40 MLOAD PUSH4 0x1E4FBDF7 PUSH1 0xE0 SHL DUP2 MSTORE PUSH1 0x0 PUSH1 0x4 DUP3 ADD MSTORE PUSH1 0x24 ADD PUSH1 0x40 MLOAD DUP1 SWAP2 SUB SWAP1 REVERT JUMPDEST PUSH3 0x93 DUP2 PUSH3 0x12B JUMP JUMPDEST POP PUSH1 0x0 JUMPDEST DUP2 MLOAD DUP2 PUSH1 0xFF AND LT ISZERO PUSH3 0x123 JUMPI PUSH1 0x1 DUP3 DUP3 PUSH1 0xFF AND DUP2 MLOAD DUP2 LT PUSH3 0xBE JUMPI PUSH3 0xBE PUSH3 0x48F JUMP JUMPDEST PUSH1 0x20 SWAP1 DUP2 MUL SWAP2 SWAP1 SWAP2 ADD DUP2 ADD MLOAD DUP3 SLOAD PUSH1 0x1 DUP2 ADD DUP5 SSTORE PUSH1 0x0 SWAP4 DUP5 MSTORE SWAP2 SWAP1 SWAP3 KECCAK256 DUP3 MLOAD PUSH1 0x2 SWAP1 SWAP3 MUL ADD SWAP1 DUP2 SWAP1 PUSH3 0xF2 SWAP1 DUP3 PUSH3 0x536 JUMP JUMPDEST POP PUSH1 0x20 DUP3 ADD MLOAD PUSH3 0x10A SWAP1 PUSH1 0x1 DUP4 ADD SWAP1 PUSH1 0x2 PUSH3 0x17B JUMP JUMPDEST POP POP POP DUP1 DUP1 PUSH3 0x11A SWAP1 PUSH3 0x602 JUMP JUMPDEST SWAP2 POP POP PUSH3 0x97 JUMP JUMPDEST POP POP PUSH3 0x630 JUMP JUMPDEST PUSH1 0x0 DUP1 SLOAD PUSH1 0x1 PUSH1 0x1 PUSH1 0xA0 SHL SUB DUP4 DUP2 AND PUSH1 0x1 PUSH1 0x1 PUSH1 0xA0 SHL SUB NOT DUP4 AND DUP2 OR DUP5 SSTORE PUSH1 0x40 MLOAD SWAP2 SWAP1 SWAP3 AND SWAP3 DUP4 SWAP2 PUSH32 0x8BE0079C531659141344CD1FD0A4F28419497F9722A3DAAFE3B4186F6B6457E0 SWAP2 SWAP1 LOG3 POP POP JUMP JUMPDEST PUSH1 0x1 DUP4 ADD SWAP2 DUP4 SWAP1 DUP3 ISZERO PUSH3 0x203 JUMPI SWAP2 PUSH1 0x20 MUL DUP3 ADD PUSH1 0x0 JUMPDEST DUP4 DUP3 GT ISZERO PUSH3 0x1D2 JUMPI DUP4 MLOAD DUP4 DUP3 PUSH2 0x100 EXP DUP2 SLOAD DUP2 PUSH1 0xFF MUL NOT AND SWAP1 DUP4 PUSH1 0xFF AND MUL OR SWAP1 SSTORE POP SWAP3 PUSH1 0x20 ADD SWAP3 PUSH1 0x1 ADD PUSH1 0x20 DUP2 PUSH1 0x0 ADD DIV SWAP3 DUP4 ADD SWAP3 PUSH1 0x1 SUB MUL PUSH3 0x192 JUMP JUMPDEST DUP1 ISZERO PUSH3 0x201 JUMPI DUP3 DUP2 PUSH2 0x100 EXP DUP2 SLOAD SWAP1 PUSH1 0xFF MUL NOT AND SWAP1 SSTORE PUSH1 0x1 ADD PUSH1 0x20 DUP2 PUSH1 0x0 ADD DIV SWAP3 DUP4 ADD SWAP3 PUSH1 0x1 SUB MUL PUSH3 0x1D2 JUMP JUMPDEST POP JUMPDEST POP PUSH3 0x211 SWAP3 SWAP2 POP PUSH3 0x215 JUMP JUMPDEST POP SWAP1 JUMP JUMPDEST JUMPDEST DUP1 DUP3 GT ISZERO PUSH3 0x211 JUMPI PUSH1 0x0 DUP2 SSTORE PUSH1 0x1 ADD PUSH3 0x216 JUMP JUMPDEST PUSH4 0x4E487B71 PUSH1 0xE0 SHL PUSH1 0x0 MSTORE PUSH1 0x41 PUSH1 0x4 MSTORE PUSH1 0x24 PUSH1 0x0 REVERT JUMPDEST PUSH1 0x40 DUP1 MLOAD SWAP1 DUP2 ADD PUSH1 0x1 PUSH1 0x1 PUSH1 0x40 SHL SUB DUP2 GT DUP3 DUP3 LT OR ISZERO PUSH3 0x267 JUMPI PUSH3 0x267 PUSH3 0x22C JUMP JUMPDEST PUSH1 0x40 MSTORE SWAP1 JUMP JUMPDEST PUSH1 0x40 MLOAD PUSH1 0x1F DUP3 ADD PUSH1 0x1F NOT AND DUP2 ADD PUSH1 0x1 PUSH1 0x1 PUSH1 0x40 SHL SUB DUP2 GT DUP3 DUP3 LT OR ISZERO PUSH3 0x298 JUMPI PUSH3 0x298 PUSH3 0x22C JUMP JUMPDEST PUSH1 0x40 MSTORE SWAP2 SWAP1 POP JUMP JUMPDEST PUSH1 0x0 DUP3 PUSH1 0x1F DUP4 ADD SLT PUSH3 0x2B2 JUMPI PUSH1 0x0 DUP1 REVERT JUMPDEST PUSH3 0x2BC PUSH3 0x242 JUMP JUMPDEST DUP1 PUSH1 0x40 DUP5 ADD DUP6 DUP2 GT ISZERO PUSH3 0x2CF JUMPI PUSH1 0x0 DUP1 REVERT JUMPDEST DUP5 JUMPDEST DUP2 DUP2 LT ISZERO PUSH3 0x2FC JUMPI DUP1 MLOAD PUSH1 0xFF DUP2 AND DUP2 EQ PUSH3 0x2ED JUMPI PUSH1 0x0 DUP1 DUP2 REVERT JUMPDEST DUP5 MSTORE PUSH1 0x20 SWAP4 DUP5 ADD SWAP4 ADD PUSH3 0x2D1 JUMP JUMPDEST POP SWAP1 SWAP6 SWAP5 POP POP POP POP POP JUMP JUMPDEST PUSH1 0x0 PUSH1 0x20 DUP1 DUP4 DUP6 SUB SLT ISZERO PUSH3 0x31B JUMPI PUSH1 0x0 DUP1 REVERT JUMPDEST DUP3 MLOAD PUSH1 0x1 PUSH1 0x1 PUSH1 0x40 SHL SUB DUP1 DUP3 GT ISZERO PUSH3 0x333 JUMPI PUSH1 0x0 DUP1 REVERT JUMPDEST DUP2 DUP6 ADD SWAP2 POP DUP6 PUSH1 0x1F DUP4 ADD SLT PUSH3 0x348 JUMPI PUSH1 0x0 DUP1 REVERT JUMPDEST DUP2 MLOAD DUP2 DUP2 GT ISZERO PUSH3 0x35D JUMPI PUSH3 0x35D PUSH3 0x22C JUMP JUMPDEST DUP1 PUSH1 0x5 SHL PUSH3 0x36E DUP6 DUP3 ADD PUSH3 0x26D JUMP JUMPDEST SWAP2 DUP3 MSTORE DUP4 DUP2 ADD DUP6 ADD SWAP2 DUP6 DUP2 ADD SWAP1 DUP10 DUP5 GT ISZERO PUSH3 0x389 JUMPI PUSH1 0x0 DUP1 REVERT JUMPDEST DUP7 DUP7 ADD SWAP3 POP JUMPDEST DUP4 DUP4 LT ISZERO PUSH3 0x482 JUMPI DUP3 MLOAD DUP6 DUP2 GT ISZERO PUSH3 0x3A8 JUMPI PUSH1 0x0 DUP1 REVERT JUMPDEST DUP7 ADD PUSH1 0x1F NOT PUSH1 0x60 DUP3 DUP14 SUB DUP3 ADD SLT ISZERO PUSH3 0x3C0 JUMPI PUSH1 0x0 DUP1 REVERT JUMPDEST PUSH3 0x3CA PUSH3 0x242 JUMP JUMPDEST DUP10 DUP4 ADD MLOAD DUP9 DUP2 GT ISZERO PUSH3 0x3DC JUMPI PUSH1 0x0 DUP1 REVERT JUMPDEST DUP4 ADD PUSH1 0x3F DUP2 ADD DUP15 SGT PUSH3 0x3EE JUMPI PUSH1 0x0 DUP1 REVERT JUMPDEST DUP11 DUP2 ADD MLOAD DUP10 DUP2 GT ISZERO PUSH3 0x405 JUMPI PUSH3 0x405 PUSH3 0x22C JUMP JUMPDEST PUSH3 0x417 DUP13 DUP6 PUSH1 0x1F DUP5 ADD AND ADD PUSH3 0x26D JUMP JUMPDEST SWAP4 POP DUP1 DUP5 MSTORE DUP15 PUSH1 0x40 DUP3 DUP5 ADD ADD GT ISZERO PUSH3 0x42F JUMPI PUSH1 0x0 DUP1 REVERT JUMPDEST PUSH1 0x0 JUMPDEST DUP2 DUP2 LT ISZERO PUSH3 0x450 JUMPI DUP3 DUP2 ADD PUSH1 0x40 ADD MLOAD DUP6 DUP3 ADD DUP15 ADD MSTORE DUP13 ADD PUSH3 0x432 JUMP JUMPDEST POP PUSH1 0x0 SWAP1 DUP5 ADD DUP13 ADD MSTORE POP DUP2 DUP2 MSTORE PUSH3 0x46C DUP14 PUSH1 0x40 DUP6 ADD PUSH3 0x2A0 JUMP JUMPDEST DUP2 DUP12 ADD MSTORE DUP5 MSTORE POP POP SWAP2 DUP7 ADD SWAP2 SWAP1 DUP7 ADD SWAP1 PUSH3 0x38F JUMP JUMPDEST SWAP10 SWAP9 POP POP POP POP POP POP POP POP POP JUMP JUMPDEST PUSH4 0x4E487B71 PUSH1 0xE0 SHL PUSH1 0x0 MSTORE PUSH1 0x32 PUSH1 0x4 MSTORE PUSH1 0x24 PUSH1 0x0 REVERT JUMPDEST PUSH1 0x1 DUP2 DUP2 SHR SWAP1 DUP3 AND DUP1 PUSH3 0x4BA JUMPI PUSH1 0x7F DUP3 AND SWAP2 POP JUMPDEST PUSH1 0x20 DUP3 LT DUP2 SUB PUSH3 0x4DB JUMPI PUSH4 0x4E487B71 PUSH1 0xE0 SHL PUSH1 0x0 MSTORE PUSH1 0x22 PUSH1 0x4 MSTORE PUSH1 0x24 PUSH1 0x0 REVERT JUMPDEST POP SWAP2 SWAP1 POP JUMP JUMPDEST PUSH1 0x1F DUP3 GT ISZERO PUSH3 0x531 JUMPI PUSH1 0x0 DUP2 PUSH1 0x0 MSTORE PUSH1 0x20 PUSH1 0x0 KECCAK256 PUSH1 0x1F DUP6 ADD PUSH1 0x5 SHR DUP2 ADD PUSH1 0x20 DUP7 LT ISZERO PUSH3 0x50C JUMPI POP DUP1 JUMPDEST PUSH1 0x1F DUP6 ADD PUSH1 0x5 SHR DUP3 ADD SWAP2 POP JUMPDEST DUP2 DUP2 LT ISZERO PUSH3 0x52D JUMPI DUP3 DUP2 SSTORE PUSH1 0x1 ADD PUSH3 0x518 JUMP JUMPDEST POP POP POP JUMPDEST POP POP POP JUMP JUMPDEST DUP2 MLOAD PUSH1 0x1 PUSH1 0x1 PUSH1 0x40 SHL SUB DUP2 GT ISZERO PUSH3 0x552 JUMPI PUSH3 0x552 PUSH3 0x22C JUMP JUMPDEST PUSH3 0x56A DUP2 PUSH3 0x563 DUP5 SLOAD PUSH3 0x4A5 JUMP JUMPDEST DUP5 PUSH3 0x4E1 JUMP JUMPDEST PUSH1 0x20 DUP1 PUSH1 0x1F DUP4 GT PUSH1 0x1 DUP2 EQ PUSH3 0x5A2 JUMPI PUSH1 0x0 DUP5 ISZERO PUSH3 0x589 JUMPI POP DUP6 DUP4 ADD MLOAD JUMPDEST PUSH1 0x0 NOT PUSH1 0x3 DUP7 SWAP1 SHL SHR NOT AND PUSH1 0x1 DUP6 SWAP1 SHL OR DUP6 SSTORE PUSH3 0x52D JUMP JUMPDEST PUSH1 0x0 DUP6 DUP2 MSTORE PUSH1 0x20 DUP2 KECCAK256 PUSH1 0x1F NOT DUP7 AND SWAP2 JUMPDEST DUP3 DUP2 LT ISZERO PUSH3 0x5D3 JUMPI DUP9 DUP7 ADD MLOAD DUP3 SSTORE SWAP5 DUP5 ADD SWAP5 PUSH1 0x1 SWAP1 SWAP2 ADD SWAP1 DUP5 ADD PUSH3 0x5B2 JUMP JUMPDEST POP DUP6 DUP3 LT ISZERO PUSH3 0x5F2 JUMPI DUP8 DUP6 ADD MLOAD PUSH1 0x0 NOT PUSH1 0x3 DUP9 SWAP1 SHL PUSH1 0xF8 AND SHR NOT AND DUP2 SSTORE JUMPDEST POP POP POP POP POP PUSH1 0x1 SWAP1 DUP2 SHL ADD SWAP1 SSTORE POP JUMP JUMPDEST PUSH1 0x0 PUSH1 0xFF DUP3 AND PUSH1 0xFF DUP2 SUB PUSH3 0x627 JUMPI PUSH4 0x4E487B71 PUSH1 0xE0 SHL PUSH1 0x0 MSTORE PUSH1 0x11 PUSH1 0x4 MSTORE PUSH1 0x24 PUSH1 0x0 REVERT JUMPDEST PUSH1 0x1 ADD SWAP3 SWAP2 POP POP JUMP JUMPDEST PUSH2 0x2D04 DUP1 PUSH3 0x640 PUSH1 0x0 CODECOPY PUSH1 0x0 RETURN INVALID PUSH1 0x80 PUSH1 0x40 MSTORE CALLVALUE DUP1 ISZERO PUSH2 0x10 JUMPI PUSH1 0x0 DUP1 REVERT JUMPDEST POP PUSH1 0x4 CALLDATASIZE LT PUSH2 0x121 JUMPI PUSH1 0x0 CALLDATALOAD PUSH1 0xE0 SHR DUP1 PUSH4 0x715018A6 GT PUSH2 0xAD JUMPI DUP1 PUSH4 0x8DA5CB5B GT PUSH2 0x71 JUMPI DUP1 PUSH4 0x8DA5CB5B EQ PUSH2 0x27D JUMPI DUP1 PUSH4 0xBBF3FA8B EQ PUSH2 0x298 JUMPI DUP1 PUSH4 0xE452B4AA EQ PUSH2 0x2AB JUMPI DUP1 PUSH4 0xE5066BBF EQ PUSH2 0x2CB JUMPI DUP1 PUSH4 0xF2FDE38B EQ PUSH2 0x2E0 JUMPI PUSH1 0x0 DUP1 REVERT JUMPDEST DUP1 PUSH4 0x715018A6 EQ PUSH2 0x220 JUMPI DUP1 PUSH4 0x7425039E EQ PUSH2 0x228 JUMPI DUP1 PUSH4 0x7D03F5F3 EQ PUSH2 0x23B JUMPI DUP1 PUSH4 0x81F41721 EQ PUSH2 0x243 JUMPI DUP1 PUSH4 0x8C65C81F EQ PUSH2 0x258 JUMPI PUSH1 0x0 DUP1 REVERT JUMPDEST DUP1 PUSH4 0x4002EDA6 GT PUSH2 0xF4 JUMPI DUP1 PUSH4 0x4002EDA6 EQ PUSH2 0x18C JUMPI DUP1 PUSH4 0x43DCB1FB EQ PUSH2 0x1B7 JUMPI DUP1 PUSH4 0x4861C57B EQ PUSH2 0x1CD JUMPI DUP1 PUSH4 0x4AD25A33 EQ PUSH2 0x1ED JUMPI DUP1 PUSH4 0x605AA499 EQ PUSH2 0x20D JUMPI PUSH1 0x0 DUP1 REVERT JUMPDEST DUP1 PUSH4 0x704DF53 EQ PUSH2 0x126 JUMPI DUP1 PUSH4 0xE9EC7B1 EQ PUSH2 0x13B JUMPI DUP1 PUSH4 0x144D0229 EQ PUSH2 0x14E JUMPI DUP1 PUSH4 0x1668DBC3 EQ PUSH2 0x177 JUMPI JUMPDEST PUSH1 0x0 DUP1 REVERT JUMPDEST PUSH2 0x139 PUSH2 0x134 CALLDATASIZE PUSH1 0x4 PUSH2 0x25A4 JUMP JUMPDEST PUSH2 0x2F3 JUMP JUMPDEST STOP JUMPDEST PUSH2 0x139 PUSH2 0x149 CALLDATASIZE PUSH1 0x4 PUSH2 0x25D8 JUMP JUMPDEST PUSH2 0x9B2 JUMP JUMPDEST PUSH2 0x161 PUSH2 0x15C CALLDATASIZE PUSH1 0x4 PUSH2 0x25D8 JUMP JUMPDEST PUSH2 0xB30 JUMP JUMPDEST PUSH1 0x40 MLOAD PUSH2 0x16E SWAP2 SWAP1 PUSH2 0x2681 JUMP JUMPDEST PUSH1 0x40 MLOAD DUP1 SWAP2 SUB SWAP1 RETURN JUMPDEST PUSH2 0x17F PUSH2 0xC3D JUMP JUMPDEST PUSH1 0x40 MLOAD PUSH2 0x16E SWAP2 SWAP1 PUSH2 0x26C1 JUMP JUMPDEST PUSH1 0x4 SLOAD PUSH2 0x19F SWAP1 PUSH1 0x1 PUSH1 0x1 PUSH1 0x40 SHL SUB AND DUP2 JUMP JUMPDEST PUSH1 0x40 MLOAD PUSH1 0x1 PUSH1 0x1 PUSH1 0x40 SHL SUB SWAP1 SWAP2 AND DUP2 MSTORE PUSH1 0x20 ADD PUSH2 0x16E JUMP JUMPDEST PUSH1 0x1 SLOAD JUMPDEST PUSH1 0x40 MLOAD PUSH1 0xFF SWAP1 SWAP2 AND DUP2 MSTORE PUSH1 0x20 ADD PUSH2 0x16E JUMP JUMPDEST PUSH2 0x1E0 PUSH2 0x1DB CALLDATASIZE PUSH1 0x4 PUSH2 0x26E6 JUMP JUMPDEST PUSH2 0xC93 JUMP JUMPDEST PUSH1 0x40 MLOAD PUSH2 0x16E SWAP2 SWAP1 PUSH2 0x2710 JUMP JUMPDEST PUSH2 0x200 PUSH2 0x1FB CALLDATASIZE PUSH1 0x4 PUSH2 0x2793 JUMP JUMPDEST PUSH2 0xE28 JUMP JUMPDEST PUSH1 0x40 MLOAD PUSH2 0x16E SWAP2 SWAP1 PUSH2 0x27F2 JUMP JUMPDEST PUSH2 0x1BB PUSH2 0x21B CALLDATASIZE PUSH1 0x4 PUSH2 0x2793 JUMP JUMPDEST PUSH2 0xEDE JUMP JUMPDEST PUSH2 0x139 PUSH2 0xF08 JUMP JUMPDEST PUSH2 0x139 PUSH2 0x236 CALLDATASIZE PUSH1 0x4 PUSH2 0x2805 JUMP JUMPDEST PUSH2 0xF1C JUMP JUMPDEST PUSH2 0x139 PUSH2 0x1623 JUMP JUMPDEST PUSH2 0x24B PUSH2 0x16ED JUMP JUMPDEST PUSH1 0x40 MLOAD PUSH2 0x16E SWAP2 SWAP1 PUSH2 0x285B JUMP JUMPDEST PUSH2 0x26B PUSH2 0x266 CALLDATASIZE PUSH1 0x4 PUSH2 0x2793 JUMP JUMPDEST PUSH2 0x1833 JUMP JUMPDEST PUSH1 0x40 MLOAD PUSH2 0x16E SWAP7 SWAP6 SWAP5 SWAP4 SWAP3 SWAP2 SWAP1 PUSH2 0x28DD JUMP JUMPDEST PUSH1 0x0 SLOAD PUSH1 0x40 MLOAD PUSH1 0x1 PUSH1 0x1 PUSH1 0xA0 SHL SUB SWAP1 SWAP2 AND DUP2 MSTORE PUSH1 0x20 ADD PUSH2 0x16E JUMP JUMPDEST PUSH2 0x139 PUSH2 0x2A6 CALLDATASIZE PUSH1 0x4 PUSH2 0x25D8 JUMP JUMPDEST PUSH2 0x188A JUMP JUMPDEST PUSH2 0x2BE PUSH2 0x2B9 CALLDATASIZE PUSH1 0x4 PUSH2 0x26E6 JUMP JUMPDEST PUSH2 0x1B0A JUMP JUMPDEST PUSH1 0x40 MLOAD PUSH2 0x16E SWAP2 SWAP1 PUSH2 0x291F JUMP JUMPDEST PUSH2 0x2D3 PUSH2 0x1C05 JUMP JUMPDEST PUSH1 0x40 MLOAD PUSH2 0x16E SWAP2 SWAP1 PUSH2 0x295F JUMP JUMPDEST PUSH2 0x139 PUSH2 0x2EE CALLDATASIZE PUSH1 0x4 PUSH2 0x29AD JUMP JUMPDEST PUSH2 0x1D7C JUMP JUMPDEST PUSH1 0x4 SLOAD DUP3 SWAP1 PUSH1 0x1 PUSH1 0x1 PUSH1 0x40 SHL SUB SWAP1 DUP2 AND SWAP1 DUP3 AND LT PUSH2 0x32C JUMPI PUSH1 0x40 MLOAD PUSH3 0x461BCD PUSH1 0xE5 SHL DUP2 MSTORE PUSH1 0x4 ADD PUSH2 0x323 SWAP1 PUSH2 0x29C8 JUMP JUMPDEST PUSH1 0x40 MLOAD DUP1 SWAP2 SUB SWAP1 REVERT JUMPDEST DUP3 PUSH1 0x0 PUSH1 0x3 DUP3 PUSH1 0x1 PUSH1 0x1 PUSH1 0x40 SHL SUB AND DUP2 SLOAD DUP2 LT PUSH2 0x34B JUMPI PUSH2 0x34B PUSH2 0x29FF JUMP JUMPDEST PUSH1 0x0 SWAP2 DUP3 MSTORE PUSH1 0x20 SWAP1 SWAP2 KECCAK256 PUSH1 0x8 SWAP1 SWAP2 MUL ADD SWAP1 POP PUSH1 0x2 PUSH1 0x4 DUP3 ADD SLOAD PUSH1 0xFF AND PUSH1 0x5 DUP2 GT ISZERO PUSH2 0x378 JUMPI PUSH2 0x378 PUSH2 0x25FA JUMP JUMPDEST EQ DUP1 PUSH2 0x39C JUMPI POP PUSH1 0x3 PUSH1 0x4 DUP3 ADD SLOAD PUSH1 0xFF AND PUSH1 0x5 DUP2 GT ISZERO PUSH2 0x39A JUMPI PUSH2 0x39A PUSH2 0x25FA JUMP JUMPDEST EQ JUMPDEST PUSH2 0x402 JUMPI PUSH1 0x40 MLOAD PUSH3 0x461BCD PUSH1 0xE5 SHL DUP2 MSTORE PUSH1 0x20 PUSH1 0x4 DUP3 ADD MSTORE PUSH1 0x31 PUSH1 0x24 DUP3 ADD MSTORE PUSH32 0x43757272656E742067616D6520646F65736E277420616C6C6F77206569746865 PUSH1 0x44 DUP3 ADD MSTORE PUSH17 0x7220706C617965727320746F206D6F7665 PUSH1 0x78 SHL PUSH1 0x64 DUP3 ADD MSTORE PUSH1 0x84 ADD PUSH2 0x323 JUMP JUMPDEST PUSH1 0x2 PUSH1 0x4 DUP3 ADD SLOAD PUSH1 0xFF AND PUSH1 0x5 DUP2 GT ISZERO PUSH2 0x41D JUMPI PUSH2 0x41D PUSH2 0x25FA JUMP JUMPDEST SUB PUSH2 0x47B JUMPI DUP1 SLOAD PUSH1 0x1 PUSH1 0x1 PUSH1 0xA0 SHL SUB AND CALLER EQ PUSH2 0x47B JUMPI PUSH1 0x40 MLOAD PUSH3 0x461BCD PUSH1 0xE5 SHL DUP2 MSTORE PUSH1 0x20 PUSH1 0x4 DUP3 ADD MSTORE PUSH1 0x1A PUSH1 0x24 DUP3 ADD MSTORE PUSH32 0x457870656374696E6720706C61796572203120746F206D6F7665000000000000 PUSH1 0x44 DUP3 ADD MSTORE PUSH1 0x64 ADD PUSH2 0x323 JUMP JUMPDEST PUSH1 0x3 PUSH1 0x4 DUP3 ADD SLOAD PUSH1 0xFF AND PUSH1 0x5 DUP2 GT ISZERO PUSH2 0x496 JUMPI PUSH2 0x496 PUSH2 0x25FA JUMP JUMPDEST SUB PUSH2 0x4F7 JUMPI PUSH1 0x1 DUP2 ADD SLOAD PUSH1 0x1 PUSH1 0x1 PUSH1 0xA0 SHL SUB AND CALLER EQ PUSH2 0x4F7 JUMPI PUSH1 0x40 MLOAD PUSH3 0x461BCD PUSH1 0xE5 SHL DUP2 MSTORE PUSH1 0x20 PUSH1 0x4 DUP3 ADD MSTORE PUSH1 0x1A PUSH1 0x24 DUP3 ADD MSTORE PUSH32 0x457870656374696E6720706C61796572203220746F206D6F7665000000000000 PUSH1 0x44 DUP3 ADD MSTORE PUSH1 0x64 ADD PUSH2 0x323 JUMP JUMPDEST PUSH1 0x2 SLOAD DUP5 MLOAD PUSH1 0xFF SWAP2 DUP3 AND SWAP2 AND LT DUP1 ISZERO PUSH2 0x521 JUMPI POP PUSH1 0x2 SLOAD PUSH1 0x20 DUP6 ADD MLOAD PUSH1 0xFF PUSH2 0x100 SWAP1 SWAP3 DIV DUP3 AND SWAP2 AND LT JUMPDEST PUSH2 0x56D JUMPI PUSH1 0x40 MLOAD PUSH3 0x461BCD PUSH1 0xE5 SHL DUP2 MSTORE PUSH1 0x20 PUSH1 0x4 DUP3 ADD MSTORE PUSH1 0x1B PUSH1 0x24 DUP3 ADD MSTORE PUSH32 0x506C61796572206D6F7665206973206F7574206F6620626F756E640000000000 PUSH1 0x44 DUP3 ADD MSTORE PUSH1 0x64 ADD PUSH2 0x323 JUMP JUMPDEST PUSH1 0x0 PUSH1 0x3 DUP7 PUSH1 0x1 PUSH1 0x1 PUSH1 0x40 SHL SUB AND DUP2 SLOAD DUP2 LT PUSH2 0x58B JUMPI PUSH2 0x58B PUSH2 0x29FF JUMP JUMPDEST PUSH1 0x0 SWAP2 DUP3 MSTORE PUSH1 0x20 DUP1 DUP4 KECCAK256 CALLER DUP5 MSTORE PUSH1 0x2 PUSH1 0x8 SWAP1 SWAP4 MUL ADD DUP3 DUP2 ADD DUP3 MSTORE PUSH1 0x40 DUP5 KECCAK256 DUP1 SLOAD PUSH1 0x1 DUP2 ADD DUP3 SSTORE DUP2 DUP7 MSTORE SWAP3 SWAP1 SWAP5 KECCAK256 SWAP1 SWAP5 POP PUSH2 0x5C9 SWAP3 SWAP2 ADD SWAP1 DUP9 SWAP1 PUSH2 0x2417 JUMP JUMPDEST POP DUP2 SLOAD PUSH1 0x0 SWAP1 PUSH1 0x1 PUSH1 0x1 PUSH1 0xA0 SHL SUB AND CALLER EQ PUSH2 0x5EE JUMPI DUP3 SLOAD PUSH1 0x1 PUSH1 0x1 PUSH1 0xA0 SHL SUB AND PUSH2 0x5FD JUMP JUMPDEST PUSH1 0x1 DUP4 ADD SLOAD PUSH1 0x1 PUSH1 0x1 PUSH1 0xA0 SHL SUB AND JUMPDEST PUSH1 0x1 PUSH1 0x1 PUSH1 0xA0 SHL SUB DUP2 AND PUSH1 0x0 SWAP1 DUP2 MSTORE PUSH1 0x3 DUP6 ADD PUSH1 0x20 MSTORE PUSH1 0x40 DUP2 KECCAK256 SWAP2 SWAP3 POP JUMPDEST PUSH1 0x1 SLOAD PUSH1 0xFF AND DUP2 PUSH1 0xFF AND LT ISZERO PUSH2 0x8D9 JUMPI PUSH1 0x0 DUP3 DUP3 PUSH1 0xFF AND DUP2 SLOAD DUP2 LT PUSH2 0x642 JUMPI PUSH2 0x642 PUSH2 0x29FF JUMP JUMPDEST PUSH1 0x0 SWAP2 DUP3 MSTORE PUSH1 0x20 SWAP1 SWAP2 KECCAK256 DUP12 MLOAD PUSH1 0x4 SWAP1 SWAP3 MUL ADD PUSH1 0x1 DUP2 ADD SLOAD SWAP1 SWAP3 POP PUSH1 0xFF SWAP2 DUP3 AND SWAP2 AND GT DUP1 ISZERO SWAP1 PUSH2 0x67D JUMPI POP PUSH1 0x2 DUP2 ADD SLOAD DUP11 MLOAD PUSH1 0xFF SWAP2 DUP3 AND SWAP2 AND GT ISZERO JUMPDEST DUP1 ISZERO PUSH2 0x69F JUMPI POP PUSH1 0x20 DUP11 ADD MLOAD PUSH1 0x1 DUP3 ADD SLOAD PUSH1 0xFF SWAP2 DUP3 AND PUSH2 0x100 SWAP1 SWAP2 DIV SWAP1 SWAP2 AND GT ISZERO JUMPDEST DUP1 ISZERO PUSH2 0x6BF JUMPI POP PUSH1 0x2 DUP2 ADD SLOAD PUSH1 0x20 DUP12 ADD MLOAD PUSH1 0xFF PUSH2 0x100 SWAP1 SWAP3 DIV DUP3 AND SWAP2 AND GT ISZERO JUMPDEST ISZERO PUSH2 0x8D0 JUMPI PUSH1 0x1 DUP2 ADD SLOAD PUSH1 0x2 DUP3 ADD SLOAD PUSH1 0x0 SWAP2 PUSH2 0x6EA SWAP2 PUSH1 0xFF PUSH2 0x100 SWAP3 DUP4 SWAP1 DIV DUP2 AND SWAP3 SWAP1 SWAP2 DIV AND PUSH2 0x2A2B JUMP JUMPDEST PUSH2 0x6F5 SWAP1 PUSH1 0x1 PUSH2 0x2A44 JUMP JUMPDEST PUSH1 0x1 DUP4 ADD SLOAD PUSH1 0x20 DUP14 ADD MLOAD SWAP2 SWAP3 POP PUSH1 0x0 SWAP2 PUSH2 0x717 SWAP2 PUSH2 0x100 SWAP1 DIV PUSH1 0xFF AND SWAP1 PUSH2 0x2A2B JUMP JUMPDEST PUSH1 0x1 DUP5 ADD SLOAD DUP14 MLOAD DUP5 SWAP2 PUSH2 0x72F SWAP2 PUSH1 0xFF SWAP1 SWAP2 AND SWAP1 PUSH2 0x2A2B JUMP JUMPDEST PUSH2 0x739 SWAP2 SWAP1 PUSH2 0x2A5D JUMP JUMPDEST PUSH2 0x743 SWAP2 SWAP1 PUSH2 0x2A44 JUMP JUMPDEST SWAP1 POP PUSH1 0x0 PUSH1 0x1 DUP3 PUSH1 0x1 DUP8 PUSH1 0xFF AND DUP2 SLOAD DUP2 LT PUSH2 0x760 JUMPI PUSH2 0x760 PUSH2 0x29FF JUMP JUMPDEST SWAP1 PUSH1 0x0 MSTORE PUSH1 0x20 PUSH1 0x0 KECCAK256 SWAP1 PUSH1 0x2 MUL ADD PUSH1 0x1 ADD PUSH1 0x1 PUSH1 0x2 DUP2 LT PUSH2 0x783 JUMPI PUSH2 0x783 PUSH2 0x29FF JUMP JUMPDEST PUSH1 0x20 SWAP2 DUP3 DUP3 DIV ADD SWAP2 SWAP1 MOD SWAP1 SLOAD SWAP1 PUSH2 0x100 EXP SWAP1 DIV PUSH1 0xFF AND PUSH1 0x1 DUP9 PUSH1 0xFF AND DUP2 SLOAD DUP2 LT PUSH2 0x7AF JUMPI PUSH2 0x7AF PUSH2 0x29FF JUMP JUMPDEST PUSH1 0x0 SWAP2 DUP3 MSTORE PUSH1 0x20 SWAP1 SWAP2 KECCAK256 PUSH1 0x1 PUSH1 0x2 SWAP1 SWAP3 MUL ADD ADD SLOAD PUSH2 0x7D0 SWAP2 SWAP1 PUSH1 0xFF AND PUSH2 0x2A5D JUMP JUMPDEST PUSH2 0x7DA SWAP2 SWAP1 PUSH2 0x2A2B JUMP JUMPDEST PUSH2 0x7E4 SWAP2 SWAP1 PUSH2 0x2A2B JUMP JUMPDEST DUP5 SLOAD PUSH8 0xFFFFFFFFFFFFFFFF NOT DUP2 AND PUSH1 0x1 PUSH1 0xFF DUP5 AND SHL NOT SWAP2 DUP3 AND PUSH1 0x1 PUSH1 0x1 PUSH1 0x40 SHL SUB AND SWAP1 DUP2 OR DUP8 SSTORE SWAP2 SWAP3 POP SWAP1 ISZERO PUSH2 0x859 JUMPI DUP8 PUSH1 0x1 PUSH1 0x1 PUSH1 0xA0 SHL SUB AND DUP16 PUSH1 0x1 PUSH1 0x1 PUSH1 0x40 SHL SUB AND PUSH32 0x19ADF9C66A801086F5C715DFAC5EE479E14C363F3D444F787E0C3FE18C13BFAE PUSH1 0x40 MLOAD PUSH1 0x40 MLOAD DUP1 SWAP2 SUB SWAP1 LOG3 PUSH2 0x8CB JUMP JUMPDEST PUSH1 0x0 DUP6 PUSH1 0x3 ADD PUSH1 0x0 PUSH2 0x100 EXP DUP2 SLOAD DUP2 PUSH1 0xFF MUL NOT AND SWAP1 DUP4 ISZERO ISZERO MUL OR SWAP1 SSTORE POP DUP8 PUSH1 0x1 PUSH1 0x1 PUSH1 0xA0 SHL SUB AND DUP16 PUSH1 0x1 PUSH1 0x1 PUSH1 0x40 SHL SUB AND PUSH32 0x133284751D2EC7C1AAF7C6E9D144FFB554C59373F20F3D9E580C4E7E2B234BA7 DUP9 PUSH1 0x40 MLOAD PUSH2 0x8C2 SWAP2 SWAP1 PUSH1 0xFF SWAP2 SWAP1 SWAP2 AND DUP2 MSTORE PUSH1 0x20 ADD SWAP1 JUMP JUMPDEST PUSH1 0x40 MLOAD DUP1 SWAP2 SUB SWAP1 LOG3 JUMPDEST POP POP POP POP JUMPDEST POP PUSH1 0x1 ADD PUSH2 0x61B JUMP JUMPDEST POP PUSH2 0x8E3 DUP10 PUSH2 0x1DBA JUMP JUMPDEST ISZERO PUSH2 0x923 JUMPI PUSH1 0x2 PUSH1 0x4 DUP6 ADD SLOAD PUSH1 0xFF AND PUSH1 0x5 DUP2 GT ISZERO PUSH2 0x903 JUMPI PUSH2 0x903 PUSH2 0x25FA JUMP JUMPDEST SUB PUSH2 0x918 JUMPI PUSH2 0x913 DUP10 PUSH1 0x4 PUSH2 0x21DC JUMP JUMPDEST PUSH2 0x959 JUMP JUMPDEST PUSH2 0x913 DUP10 PUSH1 0x5 PUSH2 0x21DC JUMP JUMPDEST PUSH1 0x2 PUSH1 0x4 DUP6 ADD SLOAD PUSH1 0xFF AND PUSH1 0x5 DUP2 GT ISZERO PUSH2 0x93E JUMPI PUSH2 0x93E PUSH2 0x25FA JUMP JUMPDEST SUB PUSH2 0x94E JUMPI PUSH2 0x913 DUP10 PUSH1 0x3 PUSH2 0x21DC JUMP JUMPDEST PUSH2 0x959 DUP10 PUSH1 0x2 PUSH2 0x21DC JUMP JUMPDEST PUSH1 0x4 DUP5 ADD SLOAD PUSH1 0x40 MLOAD CALLER SWAP2 PUSH1 0x1 PUSH1 0x1 PUSH1 0x40 SHL SUB DUP13 AND SWAP2 PUSH32 0x79536D7B8556FA0694117F3C2589CF363474FAC9463255A9D55977F160B9FEC9 SWAP2 PUSH2 0x99F SWAP2 DUP14 SWAP2 PUSH1 0xFF AND SWAP1 PUSH2 0x2A79 JUMP JUMPDEST PUSH1 0x40 MLOAD DUP1 SWAP2 SUB SWAP1 LOG3 POP POP POP POP POP POP POP POP POP JUMP JUMPDEST PUSH1 0x4 SLOAD DUP2 SWAP1 PUSH1 0x1 PUSH1 0x1 PUSH1 0x40 SHL SUB SWAP1 DUP2 AND SWAP1 DUP3 AND LT PUSH2 0x9E2 JUMPI PUSH1 0x40 MLOAD PUSH3 0x461BCD PUSH1 0xE5 SHL DUP2 MSTORE PUSH1 0x4 ADD PUSH2 0x323 SWAP1 PUSH2 0x29C8 JUMP JUMPDEST DUP2 PUSH1 0x0 DUP1 PUSH1 0x3 DUP4 PUSH1 0x1 PUSH1 0x1 PUSH1 0x40 SHL SUB AND DUP2 SLOAD DUP2 LT PUSH2 0xA02 JUMPI PUSH2 0xA02 PUSH2 0x29FF JUMP JUMPDEST PUSH1 0x0 SWAP2 DUP3 MSTORE PUSH1 0x20 SWAP1 SWAP2 KECCAK256 PUSH1 0x4 PUSH1 0x8 SWAP1 SWAP3 MUL ADD ADD SLOAD PUSH1 0xFF AND PUSH1 0x5 DUP2 GT ISZERO PUSH2 0xA2A JUMPI PUSH2 0xA2A PUSH2 0x25FA JUMP JUMPDEST EQ PUSH2 0xA47 JUMPI PUSH1 0x40 MLOAD PUSH3 0x461BCD PUSH1 0xE5 SHL DUP2 MSTORE PUSH1 0x4 ADD PUSH2 0x323 SWAP1 PUSH2 0x2A94 JUMP JUMPDEST PUSH1 0x0 PUSH1 0x3 DUP6 PUSH1 0x1 PUSH1 0x1 PUSH1 0x40 SHL SUB AND DUP2 SLOAD DUP2 LT PUSH2 0xA65 JUMPI PUSH2 0xA65 PUSH2 0x29FF JUMP JUMPDEST PUSH1 0x0 SWAP2 DUP3 MSTORE PUSH1 0x20 SWAP1 SWAP2 KECCAK256 PUSH1 0x8 SWAP1 SWAP2 MUL ADD DUP1 SLOAD SWAP1 SWAP2 POP CALLER PUSH1 0x1 PUSH1 0x1 PUSH1 0xA0 SHL SUB SWAP1 SWAP2 AND SUB PUSH2 0xAD3 JUMPI PUSH1 0x40 MLOAD PUSH3 0x461BCD PUSH1 0xE5 SHL DUP2 MSTORE PUSH1 0x20 PUSH1 0x4 DUP3 ADD MSTORE PUSH1 0x1E PUSH1 0x24 DUP3 ADD MSTORE PUSH32 0x43616E6E6F74206265207468652073616D6520617320706C6179657220310000 PUSH1 0x44 DUP3 ADD MSTORE PUSH1 0x64 ADD PUSH2 0x323 JUMP JUMPDEST PUSH1 0x1 DUP1 DUP3 ADD DUP1 SLOAD PUSH1 0x1 PUSH1 0x1 PUSH1 0xA0 SHL SUB NOT AND CALLER OR SWAP1 SSTORE PUSH2 0xAF3 SWAP1 DUP7 SWAP1 PUSH2 0x21DC JUMP JUMPDEST PUSH1 0x40 MLOAD CALLER SWAP1 PUSH1 0x1 PUSH1 0x1 PUSH1 0x40 SHL SUB DUP8 AND SWAP1 PUSH32 0xB334B0A7504E06441F9200D62E86895A4ABED0CB05C186263A990DACAF672976 SWAP1 PUSH1 0x0 SWAP1 LOG3 POP POP POP POP POP JUMP JUMPDEST PUSH2 0xB69 PUSH1 0x40 DUP1 MLOAD PUSH1 0xC0 DUP2 ADD DUP3 MSTORE PUSH1 0x0 DUP1 DUP3 MSTORE PUSH1 0x20 DUP3 ADD DUP2 SWAP1 MSTORE SWAP1 SWAP2 DUP3 ADD SWAP1 DUP2 MSTORE PUSH1 0x20 ADD PUSH1 0x0 DUP2 MSTORE PUSH1 0x20 ADD PUSH1 0x0 DUP2 MSTORE PUSH1 0x20 ADD PUSH1 0x0 DUP2 MSTORE POP SWAP1 JUMP JUMPDEST PUSH1 0x4 SLOAD DUP3 SWAP1 PUSH1 0x1 PUSH1 0x1 PUSH1 0x40 SHL SUB SWAP1 DUP2 AND SWAP1 DUP3 AND LT PUSH2 0xB99 JUMPI PUSH1 0x40 MLOAD PUSH3 0x461BCD PUSH1 0xE5 SHL DUP2 MSTORE PUSH1 0x4 ADD PUSH2 0x323 SWAP1 PUSH2 0x29C8 JUMP JUMPDEST PUSH1 0x0 PUSH1 0x3 DUP5 PUSH1 0x1 PUSH1 0x1 PUSH1 0x40 SHL SUB AND DUP2 SLOAD DUP2 LT PUSH2 0xBB7 JUMPI PUSH2 0xBB7 PUSH2 0x29FF JUMP JUMPDEST PUSH1 0x0 SWAP2 DUP3 MSTORE PUSH1 0x20 SWAP2 DUP3 SWAP1 KECCAK256 PUSH1 0x40 DUP1 MLOAD PUSH1 0xC0 DUP2 ADD DUP3 MSTORE PUSH1 0x8 SWAP1 SWAP4 MUL SWAP1 SWAP2 ADD DUP1 SLOAD PUSH1 0x1 PUSH1 0x1 PUSH1 0xA0 SHL SUB SWAP1 DUP2 AND DUP5 MSTORE PUSH1 0x1 DUP3 ADD SLOAD AND SWAP4 DUP4 ADD SWAP4 SWAP1 SWAP4 MSTORE PUSH1 0x4 DUP4 ADD SLOAD SWAP3 SWAP4 POP SWAP1 SWAP2 SWAP1 DUP3 ADD SWAP1 PUSH1 0xFF AND PUSH1 0x5 DUP2 GT ISZERO PUSH2 0xC12 JUMPI PUSH2 0xC12 PUSH2 0x25FA JUMP JUMPDEST DUP2 MSTORE PUSH1 0x20 ADD DUP3 PUSH1 0x5 ADD SLOAD DUP2 MSTORE PUSH1 0x20 ADD DUP3 PUSH1 0x6 ADD SLOAD DUP2 MSTORE PUSH1 0x20 ADD DUP3 PUSH1 0x7 ADD SLOAD DUP2 MSTORE POP SWAP3 POP POP JUMPDEST POP SWAP2 SWAP1 POP JUMP JUMPDEST PUSH2 0xC45 PUSH2 0x24AA JUMP JUMPDEST PUSH1 0x40 DUP1 MLOAD DUP1 DUP3 ADD SWAP2 DUP3 SWAP1 MSTORE SWAP1 PUSH1 0x2 SWAP1 DUP2 SWAP1 DUP2 PUSH1 0x0 DUP6 JUMPDEST DUP3 SLOAD PUSH2 0x100 DUP4 SWAP1 EXP SWAP1 DIV PUSH1 0xFF AND DUP2 MSTORE PUSH1 0x20 PUSH1 0x1 SWAP3 DUP4 ADD DUP2 DUP2 DIV SWAP5 DUP6 ADD SWAP5 SWAP1 SWAP4 SUB SWAP1 SWAP3 MUL SWAP2 ADD DUP1 DUP5 GT PUSH2 0xC5B JUMPI SWAP1 POP POP POP POP POP POP SWAP1 POP SWAP1 JUMP JUMPDEST PUSH1 0x4 SLOAD PUSH1 0x60 SWAP1 DUP4 SWAP1 PUSH1 0x1 PUSH1 0x1 PUSH1 0x40 SHL SUB SWAP1 DUP2 AND SWAP1 DUP3 AND LT PUSH2 0xCC6 JUMPI PUSH1 0x40 MLOAD PUSH3 0x461BCD PUSH1 0xE5 SHL DUP2 MSTORE PUSH1 0x4 ADD PUSH2 0x323 SWAP1 PUSH2 0x29C8 JUMP JUMPDEST PUSH1 0x3 DUP5 PUSH1 0x1 PUSH1 0x1 PUSH1 0x40 SHL SUB AND DUP2 SLOAD DUP2 LT PUSH2 0xCE2 JUMPI PUSH2 0xCE2 PUSH2 0x29FF JUMP JUMPDEST PUSH1 0x0 SWAP2 DUP3 MSTORE PUSH1 0x20 DUP1 DUP4 KECCAK256 PUSH1 0x1 PUSH1 0x1 PUSH1 0xA0 SHL SUB DUP8 AND DUP5 MSTORE PUSH1 0x3 PUSH1 0x8 SWAP1 SWAP4 MUL ADD SWAP2 SWAP1 SWAP2 ADD DUP2 MSTORE PUSH1 0x40 DUP1 DUP4 KECCAK256 DUP1 SLOAD DUP3 MLOAD DUP2 DUP6 MUL DUP2 ADD DUP6 ADD SWAP1 SWAP4 MSTORE DUP1 DUP4 MSTORE SWAP2 SWAP4 SWAP1 SWAP3 DUP5 ADD JUMPDEST DUP3 DUP3 LT ISZERO PUSH2 0xE1A JUMPI PUSH1 0x0 DUP5 DUP2 MSTORE PUSH1 0x20 DUP1 DUP3 KECCAK256 PUSH1 0x40 DUP1 MLOAD PUSH1 0x80 DUP2 ADD DUP3 MSTORE PUSH1 0x4 DUP8 MUL SWAP1 SWAP3 ADD DUP1 SLOAD PUSH1 0x1 PUSH1 0x1 PUSH1 0x40 SHL SUB AND DUP4 MSTORE DUP2 MLOAD DUP1 DUP4 ADD SWAP3 DUP4 SWAP1 MSTORE SWAP3 SWAP5 SWAP1 SWAP4 DUP6 ADD SWAP3 SWAP2 PUSH1 0x1 DUP6 ADD SWAP2 PUSH1 0x2 SWAP2 SWAP1 DUP4 SWAP1 DUP6 JUMPDEST DUP3 SLOAD PUSH2 0x100 DUP4 SWAP1 EXP SWAP1 DIV PUSH1 0xFF AND DUP2 MSTORE PUSH1 0x20 PUSH1 0x1 SWAP3 DUP4 ADD DUP2 DUP2 DIV SWAP5 DUP6 ADD SWAP5 SWAP1 SWAP4 SUB SWAP1 SWAP3 MUL SWAP2 ADD DUP1 DUP5 GT PUSH2 0xD71 JUMPI POP POP POP SWAP3 DUP5 MSTORE POP POP PUSH1 0x40 DUP1 MLOAD DUP1 DUP3 ADD SWAP2 DUP3 SWAP1 MSTORE PUSH1 0x20 SWAP1 SWAP4 ADD SWAP3 SWAP2 POP PUSH1 0x2 DUP5 DUP2 ADD SWAP2 DUP3 PUSH1 0x0 DUP6 JUMPDEST DUP3 SLOAD PUSH2 0x100 DUP4 SWAP1 EXP SWAP1 DIV PUSH1 0xFF AND DUP2 MSTORE PUSH1 0x20 PUSH1 0x1 SWAP3 DUP4 ADD DUP2 DUP2 DIV SWAP5 DUP6 ADD SWAP5 SWAP1 SWAP4 SUB SWAP1 SWAP3 MUL SWAP2 ADD DUP1 DUP5 GT PUSH2 0xDC3 JUMPI POP POP POP SWAP3 DUP5 MSTORE POP POP POP PUSH1 0x3 SWAP2 SWAP1 SWAP2 ADD SLOAD PUSH1 0xFF AND ISZERO ISZERO PUSH1 0x20 SWAP2 DUP3 ADD MSTORE SWAP1 DUP3 MSTORE PUSH1 0x1 SWAP3 SWAP1 SWAP3 ADD SWAP2 ADD PUSH2 0xD23 JUMP JUMPDEST POP POP POP POP SWAP2 POP JUMPDEST POP SWAP3 SWAP2 POP POP JUMP JUMPDEST PUSH1 0x1 DUP2 DUP2 SLOAD DUP2 LT PUSH2 0xE38 JUMPI PUSH1 0x0 DUP1 REVERT JUMPDEST SWAP1 PUSH1 0x0 MSTORE PUSH1 0x20 PUSH1 0x0 KECCAK256 SWAP1 PUSH1 0x2 MUL ADD PUSH1 0x0 SWAP2 POP SWAP1 POP DUP1 PUSH1 0x0 ADD DUP1 SLOAD PUSH2 0xE5B SWAP1 PUSH2 0x2AD7 JUMP JUMPDEST DUP1 PUSH1 0x1F ADD PUSH1 0x20 DUP1 SWAP2 DIV MUL PUSH1 0x20 ADD PUSH1 0x40 MLOAD SWAP1 DUP2 ADD PUSH1 0x40 MSTORE DUP1 SWAP3 SWAP2 SWAP1 DUP2 DUP2 MSTORE PUSH1 0x20 ADD DUP3 DUP1 SLOAD PUSH2 0xE87 SWAP1 PUSH2 0x2AD7 JUMP JUMPDEST DUP1 ISZERO PUSH2 0xED4 JUMPI DUP1 PUSH1 0x1F LT PUSH2 0xEA9 JUMPI PUSH2 0x100 DUP1 DUP4 SLOAD DIV MUL DUP4 MSTORE SWAP2 PUSH1 0x20 ADD SWAP2 PUSH2 0xED4 JUMP JUMPDEST DUP3 ADD SWAP2 SWAP1 PUSH1 0x0 MSTORE PUSH1 0x20 PUSH1 0x0 KECCAK256 SWAP1 JUMPDEST DUP2 SLOAD DUP2 MSTORE SWAP1 PUSH1 0x1 ADD SWAP1 PUSH1 0x20 ADD DUP1 DUP4 GT PUSH2 0xEB7 JUMPI DUP3 SWAP1 SUB PUSH1 0x1F AND DUP3 ADD SWAP2 JUMPDEST POP POP POP POP POP SWAP1 POP DUP2 JUMP JUMPDEST PUSH1 0x2 DUP2 PUSH1 0x2 DUP2 LT PUSH2 0xEEE JUMPI PUSH1 0x0 DUP1 REVERT JUMPDEST PUSH1 0x20 SWAP2 DUP3 DUP3 DIV ADD SWAP2 SWAP1 MOD SWAP2 POP SLOAD SWAP1 PUSH2 0x100 EXP SWAP1 DIV PUSH1 0xFF AND DUP2 JUMP JUMPDEST PUSH2 0xF10 PUSH2 0x239A JUMP JUMPDEST PUSH2 0xF1A PUSH1 0x0 PUSH2 0x23C7 JUMP JUMPDEST JUMP JUMPDEST PUSH1 0x4 SLOAD DUP5 SWAP1 PUSH1 0x1 PUSH1 0x1 PUSH1 0x40 SHL SUB SWAP1 DUP2 AND SWAP1 DUP3 AND LT PUSH2 0xF4C JUMPI PUSH1 0x40 MLOAD PUSH3 0x461BCD PUSH1 0xE5 SHL DUP2 MSTORE PUSH1 0x4 ADD PUSH2 0x323 SWAP1 PUSH2 0x29C8 JUMP JUMPDEST DUP5 PUSH1 0x1 DUP1 PUSH1 0x3 DUP4 PUSH1 0x1 PUSH1 0x1 PUSH1 0x40 SHL SUB AND DUP2 SLOAD DUP2 LT PUSH2 0xF6C JUMPI PUSH2 0xF6C PUSH2 0x29FF JUMP JUMPDEST PUSH1 0x0 SWAP2 DUP3 MSTORE PUSH1 0x20 SWAP1 SWAP2 KECCAK256 PUSH1 0x4 PUSH1 0x8 SWAP1 SWAP3 MUL ADD ADD SLOAD PUSH1 0xFF AND PUSH1 0x5 DUP2 GT ISZERO PUSH2 0xF94 JUMPI PUSH2 0xF94 PUSH2 0x25FA JUMP JUMPDEST EQ PUSH2 0xFB1 JUMPI PUSH1 0x40 MLOAD PUSH3 0x461BCD PUSH1 0xE5 SHL DUP2 MSTORE PUSH1 0x4 ADD PUSH2 0x323 SWAP1 PUSH2 0x2A94 JUMP JUMPDEST DUP7 PUSH1 0x0 PUSH1 0x3 DUP3 PUSH1 0x1 PUSH1 0x1 PUSH1 0x40 SHL SUB AND DUP2 SLOAD DUP2 LT PUSH2 0xFD0 JUMPI PUSH2 0xFD0 PUSH2 0x29FF JUMP JUMPDEST PUSH1 0x0 SWAP2 DUP3 MSTORE PUSH1 0x20 SWAP1 SWAP2 KECCAK256 PUSH1 0x8 SWAP1 SWAP2 MUL ADD DUP1 SLOAD SWAP1 SWAP2 POP PUSH1 0x1 PUSH1 0x1 PUSH1 0xA0 SHL SUB AND CALLER EQ DUP1 PUSH2 0x1007 JUMPI POP PUSH1 0x1 DUP2 ADD SLOAD PUSH1 0x1 PUSH1 0x1 PUSH1 0xA0 SHL SUB AND CALLER EQ JUMPDEST PUSH2 0x1053 JUMPI PUSH1 0x40 MLOAD PUSH3 0x461BCD PUSH1 0xE5 SHL DUP2 MSTORE PUSH1 0x20 PUSH1 0x4 DUP3 ADD MSTORE PUSH1 0x1B PUSH1 0x24 DUP3 ADD MSTORE PUSH32 0x4E6F74206F6E65206F66207468652067616D6520706C61796572730000000000 PUSH1 0x44 DUP3 ADD MSTORE PUSH1 0x64 ADD PUSH2 0x323 JUMP JUMPDEST PUSH1 0x1 SLOAD PUSH1 0xFF AND DUP9 PUSH1 0xFF AND LT PUSH2 0x10A3 JUMPI PUSH1 0x40 MLOAD PUSH3 0x461BCD PUSH1 0xE5 SHL DUP2 MSTORE PUSH1 0x20 PUSH1 0x4 DUP3 ADD MSTORE PUSH1 0x16 PUSH1 0x24 DUP3 ADD MSTORE PUSH22 0x1CDA1A5C1259081A5CC81BDD5D081BD988189BDD5B99 PUSH1 0x52 SHL PUSH1 0x44 DUP3 ADD MSTORE PUSH1 0x64 ADD PUSH2 0x323 JUMP JUMPDEST DUP6 MLOAD DUP8 MLOAD PUSH1 0xFF SWAP2 DUP3 AND SWAP2 AND GT ISZERO PUSH2 0x1110 JUMPI PUSH1 0x40 MLOAD PUSH3 0x461BCD PUSH1 0xE5 SHL DUP2 MSTORE PUSH1 0x20 PUSH1 0x4 DUP3 ADD MSTORE PUSH1 0x2B PUSH1 0x24 DUP3 ADD MSTORE PUSH32 0x746F704C65667420726F772069732067726561746572207468616E20626F7474 PUSH1 0x44 DUP3 ADD MSTORE PUSH11 0x6F6D526967687420726F77 PUSH1 0xA8 SHL PUSH1 0x64 DUP3 ADD MSTORE PUSH1 0x84 ADD PUSH2 0x323 JUMP JUMPDEST PUSH1 0x20 DUP1 DUP8 ADD MLOAD SWAP1 DUP9 ADD MLOAD PUSH1 0xFF SWAP2 DUP3 AND SWAP2 AND GT ISZERO PUSH2 0x1183 JUMPI PUSH1 0x40 MLOAD PUSH3 0x461BCD PUSH1 0xE5 SHL DUP2 MSTORE PUSH1 0x20 PUSH1 0x4 DUP3 ADD MSTORE PUSH1 0x2B PUSH1 0x24 DUP3 ADD MSTORE PUSH32 0x746F704C65667420636F6C2069732067726561746572207468616E20626F7474 PUSH1 0x44 DUP3 ADD MSTORE PUSH11 0x1BDB549A59DA1D0818DBDB PUSH1 0xAA SHL PUSH1 0x64 DUP3 ADD MSTORE PUSH1 0x84 ADD PUSH2 0x323 JUMP JUMPDEST PUSH1 0x2 SLOAD DUP7 MLOAD PUSH1 0xFF SWAP2 DUP3 AND SWAP2 AND LT PUSH2 0x11E8 JUMPI PUSH1 0x40 MLOAD PUSH3 0x461BCD PUSH1 0xE5 SHL DUP2 MSTORE PUSH1 0x20 PUSH1 0x4 DUP3 ADD MSTORE PUSH1 0x24 DUP1 DUP3 ADD MSTORE PUSH32 0x7368697020697320706C61636564206F7574206F6620626F756E6420286F6E20 PUSH1 0x44 DUP3 ADD MSTORE PUSH4 0x726F7729 PUSH1 0xE0 SHL PUSH1 0x64 DUP3 ADD MSTORE PUSH1 0x84 ADD PUSH2 0x323 JUMP JUMPDEST PUSH1 0x2 SLOAD PUSH1 0x20 DUP8 ADD MLOAD PUSH1 0xFF PUSH2 0x100 SWAP1 SWAP3 DIV DUP3 AND SWAP2 AND LT PUSH2 0x1259 JUMPI PUSH1 0x40 MLOAD PUSH3 0x461BCD PUSH1 0xE5 SHL DUP2 MSTORE PUSH1 0x20 PUSH1 0x4 DUP3 ADD MSTORE PUSH1 0x27 PUSH1 0x24 DUP3 ADD MSTORE PUSH32 0x7368697020697320706C61636564206F7574206F6620626F756E6420286F6E20 PUSH1 0x44 DUP3 ADD MSTORE PUSH7 0x636F6C756D6E29 PUSH1 0xC8 SHL PUSH1 0x64 DUP3 ADD MSTORE PUSH1 0x84 ADD PUSH2 0x323 JUMP JUMPDEST PUSH1 0x0 PUSH1 0x1 DUP10 PUSH1 0xFF AND DUP2 SLOAD DUP2 LT PUSH2 0x1271 JUMPI PUSH2 0x1271 PUSH2 0x29FF JUMP JUMPDEST PUSH1 0x0 SWAP2 DUP3 MSTORE PUSH1 0x20 DUP3 KECCAK256 DUP11 MLOAD DUP11 MLOAD PUSH1 0x2 SWAP4 SWAP1 SWAP4 MUL SWAP1 SWAP2 ADD PUSH1 0x1 ADD SWAP4 POP PUSH2 0x1295 SWAP2 PUSH2 0x2A2B JUMP JUMPDEST PUSH2 0x12A0 SWAP1 PUSH1 0x1 PUSH2 0x2A44 JUMP JUMPDEST PUSH1 0x20 DUP1 DUP12 ADD MLOAD SWAP1 DUP11 ADD MLOAD SWAP2 SWAP3 POP PUSH1 0x0 SWAP2 PUSH2 0x12BA SWAP2 SWAP1 PUSH2 0x2A2B JUMP JUMPDEST PUSH2 0x12C5 SWAP1 PUSH1 0x1 PUSH2 0x2A44 JUMP JUMPDEST DUP4 SLOAD SWAP1 SWAP2 POP PUSH1 0xFF DUP4 DUP2 AND SWAP2 AND EQ DUP1 ISZERO PUSH2 0x12E9 JUMPI POP DUP3 SLOAD PUSH1 0xFF DUP3 DUP2 AND PUSH2 0x100 SWAP1 SWAP3 DIV AND EQ JUMPDEST DUP1 PUSH2 0x1310 JUMPI POP DUP3 SLOAD PUSH1 0xFF DUP4 DUP2 AND PUSH2 0x100 SWAP1 SWAP3 DIV AND EQ DUP1 ISZERO PUSH2 0x1310 JUMPI POP DUP3 SLOAD PUSH1 0xFF DUP3 DUP2 AND SWAP2 AND EQ JUMPDEST PUSH2 0x1378 JUMPI PUSH1 0x40 MLOAD PUSH3 0x461BCD PUSH1 0xE5 SHL DUP2 MSTORE PUSH1 0x20 PUSH1 0x4 DUP3 ADD MSTORE PUSH1 0x33 PUSH1 0x24 DUP3 ADD MSTORE PUSH32 0x73686970207375626D69747465642073697A6520646F65736E2774206D617463 PUSH1 0x44 DUP3 ADD MSTORE PUSH19 0x68206974732065787065637465642073697A65 PUSH1 0x68 SHL PUSH1 0x64 DUP3 ADD MSTORE PUSH1 0x84 ADD PUSH2 0x323 JUMP JUMPDEST PUSH1 0x0 PUSH1 0x3 DUP14 PUSH1 0x1 PUSH1 0x1 PUSH1 0x40 SHL SUB AND DUP2 SLOAD DUP2 LT PUSH2 0x1396 JUMPI PUSH2 0x1396 PUSH2 0x29FF JUMP JUMPDEST PUSH1 0x0 SWAP2 DUP3 MSTORE PUSH1 0x20 DUP1 DUP4 KECCAK256 CALLER DUP5 MSTORE PUSH1 0x3 PUSH1 0x8 SWAP1 SWAP4 MUL ADD SWAP2 SWAP1 SWAP2 ADD SWAP1 MSTORE PUSH1 0x40 DUP2 KECCAK256 DUP1 SLOAD SWAP1 SWAP3 POP SWAP1 SUB PUSH2 0x149D JUMPI PUSH1 0x0 JUMPDEST PUSH1 0x1 SLOAD PUSH1 0xFF AND DUP2 PUSH1 0xFF AND LT ISZERO PUSH2 0x149B JUMPI PUSH1 0x40 DUP1 MLOAD PUSH1 0x80 DUP2 ADD DUP3 MSTORE PUSH1 0x0 DUP1 DUP3 MSTORE DUP3 MLOAD DUP1 DUP5 ADD DUP5 MSTORE DUP2 DUP2 MSTORE PUSH1 0x20 DUP1 DUP3 ADD DUP4 SWAP1 MSTORE DUP1 DUP5 ADD SWAP2 DUP3 MSTORE DUP5 MLOAD DUP1 DUP7 ADD DUP7 MSTORE DUP4 DUP2 MSTORE DUP1 DUP3 ADD DUP5 SWAP1 MSTORE SWAP5 DUP5 ADD SWAP5 SWAP1 SWAP5 MSTORE PUSH1 0x60 DUP4 ADD DUP3 SWAP1 MSTORE DUP6 SLOAD PUSH1 0x1 DUP1 DUP3 ADD DUP9 SSTORE DUP8 DUP5 MSTORE SWAP5 SWAP1 SWAP3 KECCAK256 DUP4 MLOAD PUSH1 0x4 SWAP1 SWAP4 MUL ADD DUP1 SLOAD PUSH8 0xFFFFFFFFFFFFFFFF NOT AND PUSH1 0x1 PUSH1 0x1 PUSH1 0x40 SHL SUB SWAP1 SWAP4 AND SWAP3 SWAP1 SWAP3 OR DUP3 SSTORE MLOAD SWAP2 SWAP3 SWAP1 SWAP2 PUSH2 0x1461 SWAP2 DUP4 ADD SWAP1 PUSH1 0x2 PUSH2 0x2417 JUMP JUMPDEST POP PUSH1 0x40 DUP3 ADD MLOAD PUSH2 0x1477 SWAP1 PUSH1 0x2 DUP1 DUP5 ADD SWAP2 SWAP1 PUSH2 0x2417 JUMP JUMPDEST POP PUSH1 0x60 SWAP2 SWAP1 SWAP2 ADD MLOAD PUSH1 0x3 SWAP1 SWAP2 ADD DUP1 SLOAD PUSH1 0xFF NOT AND SWAP2 ISZERO ISZERO SWAP2 SWAP1 SWAP2 OR SWAP1 SSTORE PUSH1 0x1 ADD PUSH2 0x13C3 JUMP JUMPDEST POP JUMPDEST DUP4 SLOAD PUSH1 0x1 SWAP1 PUSH2 0x14B6 SWAP1 PUSH1 0xFF PUSH2 0x100 DUP3 DIV DUP2 AND SWAP2 AND PUSH2 0x2A5D JUMP JUMPDEST PUSH2 0x14C1 SWAP1 PUSH1 0x2 PUSH2 0x2BEF JUMP JUMPDEST PUSH2 0x14CB SWAP2 SWAP1 PUSH2 0x2BFE JUMP JUMPDEST DUP2 DUP14 PUSH1 0xFF AND DUP2 SLOAD DUP2 LT PUSH2 0x14E0 JUMPI PUSH2 0x14E0 PUSH2 0x29FF JUMP JUMPDEST SWAP1 PUSH1 0x0 MSTORE PUSH1 0x20 PUSH1 0x0 KECCAK256 SWAP1 PUSH1 0x4 MUL ADD PUSH1 0x0 ADD PUSH1 0x0 PUSH2 0x100 EXP DUP2 SLOAD DUP2 PUSH1 0x1 PUSH1 0x1 PUSH1 0x40 SHL SUB MUL NOT AND SWAP1 DUP4 PUSH1 0x1 PUSH1 0x1 PUSH1 0x40 SHL SUB AND MUL OR SWAP1 SSTORE POP DUP11 DUP2 DUP14 PUSH1 0xFF AND DUP2 SLOAD DUP2 LT PUSH2 0x152B JUMPI PUSH2 0x152B PUSH2 0x29FF JUMP JUMPDEST SWAP1 PUSH1 0x0 MSTORE PUSH1 0x20 PUSH1 0x0 KECCAK256 SWAP1 PUSH1 0x4 MUL ADD PUSH1 0x1 ADD SWAP1 PUSH1 0x2 PUSH2 0x154A SWAP3 SWAP2 SWAP1 PUSH2 0x2417 JUMP JUMPDEST POP DUP10 DUP2 DUP14 PUSH1 0xFF AND DUP2 SLOAD DUP2 LT PUSH2 0x1561 JUMPI PUSH2 0x1561 PUSH2 0x29FF JUMP JUMPDEST SWAP1 PUSH1 0x0 MSTORE PUSH1 0x20 PUSH1 0x0 KECCAK256 SWAP1 PUSH1 0x4 MUL ADD PUSH1 0x2 ADD SWAP1 PUSH1 0x2 PUSH2 0x1580 SWAP3 SWAP2 SWAP1 PUSH2 0x2417 JUMP JUMPDEST POP PUSH1 0x1 DUP2 DUP14 PUSH1 0xFF AND DUP2 SLOAD DUP2 LT PUSH2 0x1598 JUMPI PUSH2 0x1598 PUSH2 0x29FF JUMP JUMPDEST SWAP1 PUSH1 0x0 MSTORE PUSH1 0x20 PUSH1 0x0 KECCAK256 SWAP1 PUSH1 0x4 MUL ADD PUSH1 0x3 ADD PUSH1 0x0 PUSH2 0x100 EXP DUP2 SLOAD DUP2 PUSH1 0xFF MUL NOT AND SWAP1 DUP4 ISZERO ISZERO MUL OR SWAP1 SSTORE POP CALLER PUSH1 0x1 PUSH1 0x1 PUSH1 0xA0 SHL SUB AND DUP14 PUSH1 0x1 PUSH1 0x1 PUSH1 0x40 SHL SUB AND PUSH32 0x89B66467B6EE413D5148694C68C0180783631BEF4EE184F6E47BD51882C87AB4 DUP15 PUSH1 0x40 MLOAD PUSH2 0x160C SWAP2 SWAP1 PUSH1 0xFF SWAP2 SWAP1 SWAP2 AND DUP2 MSTORE PUSH1 0x20 ADD SWAP1 JUMP JUMPDEST PUSH1 0x40 MLOAD DUP1 SWAP2 SUB SWAP1 LOG3 POP POP POP POP POP POP POP POP POP POP POP POP POP JUMP JUMPDEST PUSH1 0x3 DUP1 SLOAD PUSH1 0x1 DUP2 ADD DUP3 SSTORE PUSH1 0x0 SWAP2 DUP3 MSTORE PUSH1 0x8 MUL PUSH32 0xC2575A0E9E593C00F959F8C92F12DB2869C3395A3B0502D05E2516446F71F85B ADD DUP1 SLOAD PUSH1 0x1 PUSH1 0x1 PUSH1 0xA0 SHL SUB NOT AND CALLER OR DUP2 SSTORE PUSH1 0x4 DUP1 SLOAD SWAP2 SWAP3 SWAP2 PUSH1 0x1 PUSH1 0x1 PUSH1 0x40 SHL SUB AND SWAP1 DUP3 PUSH2 0x1682 DUP4 PUSH2 0x2C1E JUMP JUMPDEST SWAP2 SWAP1 PUSH2 0x100 EXP DUP2 SLOAD DUP2 PUSH1 0x1 PUSH1 0x1 PUSH1 0x40 SHL SUB MUL NOT AND SWAP1 DUP4 PUSH1 0x1 PUSH1 0x1 PUSH1 0x40 SHL SUB AND MUL OR SWAP1 SSTORE POP SWAP1 POP PUSH2 0x16B3 DUP2 PUSH1 0x0 PUSH2 0x21DC JUMP JUMPDEST PUSH1 0x40 MLOAD CALLER SWAP1 PUSH1 0x1 PUSH1 0x1 PUSH1 0x40 SHL SUB DUP4 AND SWAP1 PUSH32 0xB4AB36F4D2FEE8698466065C4EE831B4748994CDD8DE1C10A834A1D9B9452337 SWAP1 PUSH1 0x0 SWAP1 LOG3 POP POP JUMP JUMPDEST PUSH1 0x60 PUSH1 0x1 DUP1 SLOAD DUP1 PUSH1 0x20 MUL PUSH1 0x20 ADD PUSH1 0x40 MLOAD SWAP1 DUP2 ADD PUSH1 0x40 MSTORE DUP1 SWAP3 SWAP2 SWAP1 DUP2 DUP2 MSTORE PUSH1 0x20 ADD PUSH1 0x0 SWAP1 JUMPDEST DUP3 DUP3 LT ISZERO PUSH2 0x182A JUMPI DUP4 DUP3 SWAP1 PUSH1 0x0 MSTORE PUSH1 0x20 PUSH1 0x0 KECCAK256 SWAP1 PUSH1 0x2 MUL ADD PUSH1 0x40 MLOAD DUP1 PUSH1 0x40 ADD PUSH1 0x40 MSTORE SWAP1 DUP2 PUSH1 0x0 DUP3 ADD DUP1 SLOAD PUSH2 0x1744 SWAP1 PUSH2 0x2AD7 JUMP JUMPDEST DUP1 PUSH1 0x1F ADD PUSH1 0x20 DUP1 SWAP2 DIV MUL PUSH1 0x20 ADD PUSH1 0x40 MLOAD SWAP1 DUP2 ADD PUSH1 0x40 MSTORE DUP1 SWAP3 SWAP2 SWAP1 DUP2 DUP2 MSTORE PUSH1 0x20 ADD DUP3 DUP1 SLOAD PUSH2 0x1770 SWAP1 PUSH2 0x2AD7 JUMP JUMPDEST DUP1 ISZERO PUSH2 0x17BD JUMPI DUP1 PUSH1 0x1F LT PUSH2 0x1792 JUMPI PUSH2 0x100 DUP1 DUP4 SLOAD DIV MUL DUP4 MSTORE SWAP2 PUSH1 0x20 ADD SWAP2 PUSH2 0x17BD JUMP JUMPDEST DUP3 ADD SWAP2 SWAP1 PUSH1 0x0 MSTORE PUSH1 0x20 PUSH1 0x0 KECCAK256 SWAP1 JUMPDEST DUP2 SLOAD DUP2 MSTORE SWAP1 PUSH1 0x1 ADD SWAP1 PUSH1 0x20 ADD DUP1 DUP4 GT PUSH2 0x17A0 JUMPI DUP3 SWAP1 SUB PUSH1 0x1F AND DUP3 ADD SWAP2 JUMPDEST POP POP POP SWAP2 DUP4 MSTORE POP POP PUSH1 0x40 DUP1 MLOAD DUP1 DUP3 ADD SWAP2 DUP3 SWAP1 MSTORE PUSH1 0x20 SWAP1 SWAP3 ADD SWAP2 SWAP1 PUSH1 0x1 DUP5 ADD SWAP1 PUSH1 0x2 SWAP1 DUP3 PUSH1 0x0 DUP6 JUMPDEST DUP3 SLOAD PUSH2 0x100 DUP4 SWAP1 EXP SWAP1 DIV PUSH1 0xFF AND DUP2 MSTORE PUSH1 0x20 PUSH1 0x1 SWAP3 DUP4 ADD DUP2 DUP2 DIV SWAP5 DUP6 ADD SWAP5 SWAP1 SWAP4 SUB SWAP1 SWAP3 MUL SWAP2 ADD DUP1 DUP5 GT PUSH2 0x17E4 JUMPI SWAP1 POP POP POP POP POP POP DUP2 MSTORE POP POP DUP2 MSTORE PUSH1 0x20 ADD SWAP1 PUSH1 0x1 ADD SWAP1 PUSH2 0x1711 JUMP JUMPDEST POP POP POP POP SWAP1 POP SWAP1 JUMP JUMPDEST PUSH1 0x3 DUP2 DUP2 SLOAD DUP2 LT PUSH2 0x1843 JUMPI PUSH1 0x0 DUP1 REVERT JUMPDEST PUSH1 0x0 SWAP2 DUP3 MSTORE PUSH1 0x20 SWAP1 SWAP2 KECCAK256 PUSH1 0x8 SWAP1 SWAP2 MUL ADD DUP1 SLOAD PUSH1 0x1 DUP3 ADD SLOAD PUSH1 0x4 DUP4 ADD SLOAD PUSH1 0x5 DUP5 ADD SLOAD PUSH1 0x6 DUP6 ADD SLOAD PUSH1 0x7 SWAP1 SWAP6 ADD SLOAD PUSH1 0x1 PUSH1 0x1 PUSH1 0xA0 SHL SUB SWAP5 DUP6 AND SWAP7 POP SWAP4 SWAP1 SWAP3 AND SWAP4 PUSH1 0xFF SWAP1 SWAP2 AND SWAP3 DUP7 JUMP JUMPDEST PUSH1 0x4 SLOAD DUP2 SWAP1 PUSH1 0x1 PUSH1 0x1 PUSH1 0x40 SHL SUB SWAP1 DUP2 AND SWAP1 DUP3 AND LT PUSH2 0x18BA JUMPI PUSH1 0x40 MLOAD PUSH3 0x461BCD PUSH1 0xE5 SHL DUP2 MSTORE PUSH1 0x4 ADD PUSH2 0x323 SWAP1 PUSH2 0x29C8 JUMP JUMPDEST DUP2 PUSH1 0x1 DUP1 PUSH1 0x3 DUP4 PUSH1 0x1 PUSH1 0x1 PUSH1 0x40 SHL SUB AND DUP2 SLOAD DUP2 LT PUSH2 0x18DA JUMPI PUSH2 0x18DA PUSH2 0x29FF JUMP JUMPDEST PUSH1 0x0 SWAP2 DUP3 MSTORE PUSH1 0x20 SWAP1 SWAP2 KECCAK256 PUSH1 0x4 PUSH1 0x8 SWAP1 SWAP3 MUL ADD ADD SLOAD PUSH1 0xFF AND PUSH1 0x5 DUP2 GT ISZERO PUSH2 0x1902 JUMPI PUSH2 0x1902 PUSH2 0x25FA JUMP JUMPDEST EQ PUSH2 0x191F JUMPI PUSH1 0x40 MLOAD PUSH3 0x461BCD PUSH1 0xE5 SHL DUP2 MSTORE PUSH1 0x4 ADD PUSH2 0x323 SWAP1 PUSH2 0x2A94 JUMP JUMPDEST PUSH1 0x0 PUSH1 0x3 DUP6 PUSH1 0x1 PUSH1 0x1 PUSH1 0x40 SHL SUB AND DUP2 SLOAD DUP2 LT PUSH2 0x193D JUMPI PUSH2 0x193D PUSH2 0x29FF JUMP JUMPDEST PUSH1 0x0 SWAP2 DUP3 MSTORE PUSH1 0x20 SWAP1 SWAP2 KECCAK256 PUSH1 0x8 SWAP1 SWAP2 MUL ADD DUP1 SLOAD PUSH1 0x1 DUP3 ADD SLOAD SWAP2 SWAP3 POP PUSH1 0x1 PUSH1 0x1 PUSH1 0xA0 SHL SUB SWAP1 DUP2 AND SWAP2 AND PUSH2 0x196D PUSH1 0x1 SLOAD SWAP1 JUMP JUMPDEST PUSH1 0x1 PUSH1 0x1 PUSH1 0xA0 SHL SUB DUP4 AND PUSH1 0x0 SWAP1 DUP2 MSTORE PUSH1 0x3 DUP6 ADD PUSH1 0x20 MSTORE PUSH1 0x40 SWAP1 KECCAK256 SLOAD PUSH1 0xFF SWAP2 SWAP1 SWAP2 AND EQ PUSH2 0x19AB JUMPI PUSH1 0x40 MLOAD PUSH3 0x461BCD PUSH1 0xE5 SHL DUP2 MSTORE PUSH1 0x4 ADD PUSH2 0x323 SWAP1 PUSH2 0x2C44 JUMP JUMPDEST PUSH1 0x1 SLOAD PUSH1 0x1 PUSH1 0x1 PUSH1 0xA0 SHL SUB DUP3 AND PUSH1 0x0 SWAP1 DUP2 MSTORE PUSH1 0x3 DUP6 ADD PUSH1 0x20 MSTORE PUSH1 0x40 SWAP1 KECCAK256 SLOAD PUSH1 0xFF SWAP1 SWAP2 AND EQ PUSH2 0x19EB JUMPI PUSH1 0x40 MLOAD PUSH3 0x461BCD PUSH1 0xE5 SHL DUP2 MSTORE PUSH1 0x4 ADD PUSH2 0x323 SWAP1 PUSH2 0x2C89 JUMP JUMPDEST PUSH1 0x0 JUMPDEST PUSH1 0x1 SLOAD PUSH1 0xFF AND DUP2 LT ISZERO PUSH2 0x1AC1 JUMPI PUSH1 0x1 PUSH1 0x1 PUSH1 0xA0 SHL SUB DUP4 AND PUSH1 0x0 SWAP1 DUP2 MSTORE PUSH1 0x3 DUP6 ADD PUSH1 0x20 MSTORE PUSH1 0x40 SWAP1 KECCAK256 DUP1 SLOAD DUP3 SWAP1 DUP2 LT PUSH2 0x1A27 JUMPI PUSH2 0x1A27 PUSH2 0x29FF JUMP JUMPDEST PUSH1 0x0 SWAP2 DUP3 MSTORE PUSH1 0x20 SWAP1 SWAP2 KECCAK256 PUSH1 0x3 PUSH1 0x4 SWAP1 SWAP3 MUL ADD ADD SLOAD PUSH1 0xFF AND PUSH2 0x1A5A JUMPI PUSH1 0x40 MLOAD PUSH3 0x461BCD PUSH1 0xE5 SHL DUP2 MSTORE PUSH1 0x4 ADD PUSH2 0x323 SWAP1 PUSH2 0x2C44 JUMP JUMPDEST PUSH1 0x1 PUSH1 0x1 PUSH1 0xA0 SHL SUB DUP3 AND PUSH1 0x0 SWAP1 DUP2 MSTORE PUSH1 0x3 DUP6 ADD PUSH1 0x20 MSTORE PUSH1 0x40 SWAP1 KECCAK256 DUP1 SLOAD DUP3 SWAP1 DUP2 LT PUSH2 0x1A86 JUMPI PUSH2 0x1A86 PUSH2 0x29FF JUMP JUMPDEST PUSH1 0x0 SWAP2 DUP3 MSTORE PUSH1 0x20 SWAP1 SWAP2 KECCAK256 PUSH1 0x3 PUSH1 0x4 SWAP1 SWAP3 MUL ADD ADD SLOAD PUSH1 0xFF AND PUSH2 0x1AB9 JUMPI PUSH1 0x40 MLOAD PUSH3 0x461BCD PUSH1 0xE5 SHL DUP2 MSTORE PUSH1 0x4 ADD PUSH2 0x323 SWAP1 PUSH2 0x2C89 JUMP JUMPDEST PUSH1 0x1 ADD PUSH2 0x19EE JUMP JUMPDEST POP PUSH2 0x1ACD DUP8 PUSH1 0x2 PUSH2 0x21DC JUMP JUMPDEST PUSH1 0x40 MLOAD PUSH1 0x1 PUSH1 0x1 PUSH1 0x40 SHL SUB DUP9 AND SWAP1 PUSH32 0xB5E8A4470F7BCAC7F2C0F3E23471BD7016A9F6F049884CD27DFA8960F361287B SWAP1 PUSH1 0x0 SWAP1 LOG2 POP POP POP POP POP POP POP JUMP JUMPDEST PUSH1 0x4 SLOAD PUSH1 0x60 SWAP1 DUP4 SWAP1 PUSH1 0x1 PUSH1 0x1 PUSH1 0x40 SHL SUB SWAP1 DUP2 AND SWAP1 DUP3 AND LT PUSH2 0x1B3D JUMPI PUSH1 0x40 MLOAD PUSH3 0x461BCD PUSH1 0xE5 SHL DUP2 MSTORE PUSH1 0x4 ADD PUSH2 0x323 SWAP1 PUSH2 0x29C8 JUMP JUMPDEST PUSH1 0x3 DUP5 PUSH1 0x1 PUSH1 0x1 PUSH1 0x40 SHL SUB AND DUP2 SLOAD DUP2 LT PUSH2 0x1B59 JUMPI PUSH2 0x1B59 PUSH2 0x29FF JUMP JUMPDEST PUSH1 0x0 SWAP2 DUP3 MSTORE PUSH1 0x20 DUP1 DUP4 KECCAK256 PUSH1 0x1 PUSH1 0x1 PUSH1 0xA0 SHL SUB DUP8 AND DUP5 MSTORE PUSH1 0x2 PUSH1 0x8 SWAP1 SWAP4 MUL ADD SWAP2 SWAP1 SWAP2 ADD DUP2 MSTORE PUSH1 0x40 DUP1 DUP4 KECCAK256 DUP1 SLOAD DUP3 MLOAD DUP2 DUP6 MUL DUP2 ADD DUP6 ADD SWAP1 SWAP4 MSTORE DUP1 DUP4 MSTORE SWAP2 SWAP4 SWAP1 SWAP3 DUP5 ADD JUMPDEST DUP3 DUP3 LT ISZERO PUSH2 0xE1A JUMPI PUSH1 0x0 DUP5 DUP2 MSTORE PUSH1 0x20 DUP2 KECCAK256 PUSH1 0x40 DUP1 MLOAD DUP1 DUP3 ADD SWAP2 DUP3 SWAP1 MSTORE SWAP3 SWAP2 DUP6 ADD SWAP2 PUSH1 0x2 SWAP2 SWAP1 DUP4 SWAP1 DUP6 JUMPDEST DUP3 SLOAD PUSH2 0x100 DUP4 SWAP1 EXP SWAP1 DIV PUSH1 0xFF AND DUP2 MSTORE PUSH1 0x20 PUSH1 0x1 SWAP3 DUP4 ADD DUP2 DUP2 DIV SWAP5 DUP6 ADD SWAP5 SWAP1 SWAP4 SUB SWAP1 SWAP3 MUL SWAP2 ADD DUP1 DUP5 GT PUSH2 0x1BC3 JUMPI SWAP1 POP POP POP POP POP POP DUP2 MSTORE PUSH1 0x20 ADD SWAP1 PUSH1 0x1 ADD SWAP1 PUSH2 0x1B9A JUMP JUMPDEST PUSH1 0x3 SLOAD PUSH1 0x60 SWAP1 PUSH1 0x0 SWAP1 PUSH1 0x1 PUSH1 0x1 PUSH1 0x40 SHL SUB DUP2 GT ISZERO PUSH2 0x1C25 JUMPI PUSH2 0x1C25 PUSH2 0x24F9 JUMP JUMPDEST PUSH1 0x40 MLOAD SWAP1 DUP1 DUP3 MSTORE DUP1 PUSH1 0x20 MUL PUSH1 0x20 ADD DUP3 ADD PUSH1 0x40 MSTORE DUP1 ISZERO PUSH2 0x1C8F JUMPI DUP2 PUSH1 0x20 ADD JUMPDEST PUSH2 0x1C7C PUSH1 0x40 DUP1 MLOAD PUSH1 0xC0 DUP2 ADD DUP3 MSTORE PUSH1 0x0 DUP1 DUP3 MSTORE PUSH1 0x20 DUP3 ADD DUP2 SWAP1 MSTORE SWAP1 SWAP2 DUP3 ADD SWAP1 DUP2 MSTORE PUSH1 0x20 ADD PUSH1 0x0 DUP2 MSTORE PUSH1 0x20 ADD PUSH1 0x0 DUP2 MSTORE PUSH1 0x20 ADD PUSH1 0x0 DUP2 MSTORE POP SWAP1 JUMP JUMPDEST DUP2 MSTORE PUSH1 0x20 ADD SWAP1 PUSH1 0x1 SWAP1 SUB SWAP1 DUP2 PUSH2 0x1C43 JUMPI SWAP1 POP JUMPDEST POP SWAP1 POP PUSH1 0x0 JUMPDEST PUSH1 0x3 SLOAD PUSH1 0x1 PUSH1 0x1 PUSH1 0x40 SHL SUB DUP3 AND LT ISZERO PUSH2 0xC37 JUMPI PUSH1 0x0 PUSH1 0x3 DUP3 PUSH1 0x1 PUSH1 0x1 PUSH1 0x40 SHL SUB AND DUP2 SLOAD DUP2 LT PUSH2 0x1CC6 JUMPI PUSH2 0x1CC6 PUSH2 0x29FF JUMP JUMPDEST PUSH1 0x0 SWAP2 DUP3 MSTORE PUSH1 0x20 SWAP2 DUP3 SWAP1 KECCAK256 PUSH1 0x40 DUP1 MLOAD PUSH1 0xC0 DUP2 ADD DUP3 MSTORE PUSH1 0x8 SWAP1 SWAP4 MUL SWAP1 SWAP2 ADD DUP1 SLOAD PUSH1 0x1 PUSH1 0x1 PUSH1 0xA0 SHL SUB SWAP1 DUP2 AND DUP5 MSTORE PUSH1 0x1 DUP3 ADD SLOAD AND SWAP4 DUP4 ADD SWAP4 SWAP1 SWAP4 MSTORE PUSH1 0x4 DUP4 ADD SLOAD SWAP3 SWAP4 POP SWAP1 SWAP2 SWAP1 DUP3 ADD SWAP1 PUSH1 0xFF AND PUSH1 0x5 DUP2 GT ISZERO PUSH2 0x1D21 JUMPI PUSH2 0x1D21 PUSH2 0x25FA JUMP JUMPDEST DUP2 MSTORE PUSH1 0x20 ADD DUP3 PUSH1 0x5 ADD SLOAD DUP2 MSTORE PUSH1 0x20 ADD DUP3 PUSH1 0x6 ADD SLOAD DUP2 MSTORE PUSH1 0x20 ADD DUP3 PUSH1 0x7 ADD SLOAD DUP2 MSTORE POP DUP4 DUP4 PUSH1 0x1 PUSH1 0x1 PUSH1 0x40 SHL SUB AND DUP2 MLOAD DUP2 LT PUSH2 0x1D5D JUMPI PUSH2 0x1D5D PUSH2 0x29FF JUMP JUMPDEST PUSH1 0x20 MUL PUSH1 0x20 ADD ADD DUP2 SWAP1 MSTORE POP POP DUP1 DUP1 PUSH2 0x1D74 SWAP1 PUSH2 0x2C1E JUMP JUMPDEST SWAP2 POP POP PUSH2 0x1C95 JUMP JUMPDEST PUSH2 0x1D84 PUSH2 0x239A JUMP JUMPDEST PUSH1 0x1 PUSH1 0x1 PUSH1 0xA0 SHL SUB DUP2 AND PUSH2 0x1DAE JUMPI PUSH1 0x40 MLOAD PUSH4 0x1E4FBDF7 PUSH1 0xE0 SHL DUP2 MSTORE PUSH1 0x0 PUSH1 0x4 DUP3 ADD MSTORE PUSH1 0x24 ADD PUSH2 0x323 JUMP JUMPDEST PUSH2 0x1DB7 DUP2 PUSH2 0x23C7 JUMP JUMPDEST POP JUMP JUMPDEST PUSH1 0x4 SLOAD PUSH1 0x0 SWAP1 DUP3 SWAP1 PUSH1 0x1 PUSH1 0x1 PUSH1 0x40 SHL SUB SWAP1 DUP2 AND SWAP1 DUP3 AND LT PUSH2 0x1DED JUMPI PUSH1 0x40 MLOAD PUSH3 0x461BCD PUSH1 0xE5 SHL DUP2 MSTORE PUSH1 0x4 ADD PUSH2 0x323 SWAP1 PUSH2 0x29C8 JUMP JUMPDEST PUSH1 0x0 PUSH1 0x3 DUP5 PUSH1 0x1 PUSH1 0x1 PUSH1 0x40 SHL SUB AND DUP2 SLOAD DUP2 LT PUSH2 0x1E0B JUMPI PUSH2 0x1E0B PUSH2 0x29FF JUMP JUMPDEST PUSH1 0x0 SWAP2 DUP3 MSTORE PUSH1 0x20 DUP3 KECCAK256 PUSH1 0x8 SWAP1 SWAP2 MUL ADD SWAP2 POP PUSH1 0x4 DUP3 ADD SLOAD PUSH1 0xFF AND PUSH1 0x5 DUP2 GT ISZERO PUSH2 0x1E35 JUMPI PUSH2 0x1E35 PUSH2 0x25FA JUMP JUMPDEST EQ DUP1 PUSH2 0x1E59 JUMPI POP PUSH1 0x1 PUSH1 0x4 DUP3 ADD SLOAD PUSH1 0xFF AND PUSH1 0x5 DUP2 GT ISZERO PUSH2 0x1E57 JUMPI PUSH2 0x1E57 PUSH2 0x25FA JUMP JUMPDEST EQ JUMPDEST ISZERO PUSH2 0x1E68 JUMPI PUSH1 0x0 SWAP3 POP POP PUSH2 0xC37 JUMP JUMPDEST PUSH1 0x4 DUP1 DUP3 ADD SLOAD PUSH1 0xFF AND PUSH1 0x5 DUP2 GT ISZERO PUSH2 0x1E82 JUMPI PUSH2 0x1E82 PUSH2 0x25FA JUMP JUMPDEST EQ DUP1 PUSH2 0x1EA6 JUMPI POP PUSH1 0x5 PUSH1 0x4 DUP3 ADD SLOAD PUSH1 0xFF AND PUSH1 0x5 DUP2 GT ISZERO PUSH2 0x1EA4 JUMPI PUSH2 0x1EA4 PUSH2 0x25FA JUMP JUMPDEST EQ JUMPDEST ISZERO PUSH2 0x1EB5 JUMPI PUSH1 0x1 SWAP3 POP POP PUSH2 0xC37 JUMP JUMPDEST DUP1 SLOAD PUSH1 0x1 PUSH1 0x1 PUSH1 0xA0 SHL SUB AND PUSH1 0x0 SWAP1 DUP2 MSTORE PUSH1 0x3 DUP3 ADD PUSH1 0x20 SWAP1 DUP2 MSTORE PUSH1 0x40 DUP1 DUP4 KECCAK256 DUP1 SLOAD DUP3 MLOAD DUP2 DUP6 MUL DUP2 ADD DUP6 ADD SWAP1 SWAP4 MSTORE DUP1 DUP4 MSTORE PUSH1 0x1 SWAP5 SWAP4 DUP5 SWAP1 DUP5 ADD JUMPDEST DUP3 DUP3 LT ISZERO PUSH2 0x1FE4 JUMPI PUSH1 0x0 DUP5 DUP2 MSTORE PUSH1 0x20 DUP1 DUP3 KECCAK256 PUSH1 0x40 DUP1 MLOAD PUSH1 0x80 DUP2 ADD DUP3 MSTORE PUSH1 0x4 DUP8 MUL SWAP1 SWAP3 ADD DUP1 SLOAD PUSH1 0x1 PUSH1 0x1 PUSH1 0x40 SHL SUB AND DUP4 MSTORE DUP2 MLOAD DUP1 DUP4 ADD SWAP3 DUP4 SWAP1 MSTORE SWAP3 SWAP5 SWAP1 SWAP4 DUP6 ADD SWAP3 SWAP2 PUSH1 0x1 DUP6 ADD SWAP2 PUSH1 0x2 SWAP2 SWAP1 DUP4 SWAP1 DUP6 JUMPDEST DUP3 SLOAD PUSH2 0x100 DUP4 SWAP1 EXP SWAP1 DIV PUSH1 0xFF AND DUP2 MSTORE PUSH1 0x20 PUSH1 0x1 SWAP3 DUP4 ADD DUP2 DUP2 DIV SWAP5 DUP6 ADD SWAP5 SWAP1 SWAP4 SUB SWAP1 SWAP3 MUL SWAP2 ADD DUP1 DUP5 GT PUSH2 0x1F3B JUMPI POP POP POP SWAP3 DUP5 MSTORE POP POP PUSH1 0x40 DUP1 MLOAD DUP1 DUP3 ADD SWAP2 DUP3 SWAP1 MSTORE PUSH1 0x20 SWAP1 SWAP4 ADD SWAP3 SWAP2 POP PUSH1 0x2 DUP5 DUP2 ADD SWAP2 DUP3 PUSH1 0x0 DUP6 JUMPDEST DUP3 SLOAD PUSH2 0x100 DUP4 SWAP1 EXP SWAP1 DIV PUSH1 0xFF AND DUP2 MSTORE PUSH1 0x20 PUSH1 0x1 SWAP3 DUP4 ADD DUP2 DUP2 DIV SWAP5 DUP6 ADD SWAP5 SWAP1 SWAP4 SUB SWAP1 SWAP3 MUL SWAP2 ADD DUP1 DUP5 GT PUSH2 0x1F8D JUMPI POP POP POP SWAP3 DUP5 MSTORE POP POP POP PUSH1 0x3 SWAP2 SWAP1 SWAP2 ADD SLOAD PUSH1 0xFF AND ISZERO ISZERO PUSH1 0x20 SWAP2 DUP3 ADD MSTORE SWAP1 DUP3 MSTORE PUSH1 0x1 SWAP3 SWAP1 SWAP3 ADD SWAP2 ADD PUSH2 0x1EED JUMP JUMPDEST POP POP POP PUSH1 0x1 DUP6 ADD SLOAD PUSH1 0x1 PUSH1 0x1 PUSH1 0xA0 SHL SUB AND PUSH1 0x0 SWAP1 DUP2 MSTORE PUSH1 0x3 DUP7 ADD PUSH1 0x20 SWAP1 DUP2 MSTORE PUSH1 0x40 DUP1 DUP4 KECCAK256 DUP1 SLOAD DUP3 MLOAD DUP2 DUP6 MUL DUP2 ADD DUP6 ADD SWAP1 SWAP4 MSTORE DUP1 DUP4 MSTORE SWAP6 SWAP7 POP SWAP3 SWAP5 SWAP1 SWAP4 POP SWAP1 DUP5 SWAP1 DUP5 ADD JUMPDEST DUP3 DUP3 LT ISZERO PUSH2 0x211E JUMPI PUSH1 0x0 DUP5 DUP2 MSTORE PUSH1 0x20 DUP1 DUP3 KECCAK256 PUSH1 0x40 DUP1 MLOAD PUSH1 0x80 DUP2 ADD DUP3 MSTORE PUSH1 0x4 DUP8 MUL SWAP1 SWAP3 ADD DUP1 SLOAD PUSH1 0x1 PUSH1 0x1 PUSH1 0x40 SHL SUB AND DUP4 MSTORE DUP2 MLOAD DUP1 DUP4 ADD SWAP3 DUP4 SWAP1 MSTORE SWAP3 SWAP5 SWAP1 SWAP4 DUP6 ADD SWAP3 SWAP2 PUSH1 0x1 DUP6 ADD SWAP2 PUSH1 0x2 SWAP2 SWAP1 DUP4 SWAP1 DUP6 JUMPDEST DUP3 SLOAD PUSH2 0x100 DUP4 SWAP1 EXP SWAP1 DIV PUSH1 0xFF AND DUP2 MSTORE PUSH1 0x20 PUSH1 0x1 SWAP3 DUP4 ADD DUP2 DUP2 DIV SWAP5 DUP6 ADD SWAP5 SWAP1 SWAP4 SUB SWAP1 SWAP3 MUL SWAP2 ADD DUP1 DUP5 GT PUSH2 0x2075 JUMPI POP POP POP SWAP3 DUP5 MSTORE POP POP PUSH1 0x40 DUP1 MLOAD DUP1 DUP3 ADD SWAP2 DUP3 SWAP1 MSTORE PUSH1 0x20 SWAP1 SWAP4 ADD SWAP3 SWAP2 POP PUSH1 0x2 DUP5 DUP2 ADD SWAP2 DUP3 PUSH1 0x0 DUP6 JUMPDEST DUP3 SLOAD PUSH2 0x100 DUP4 SWAP1 EXP SWAP1 DIV PUSH1 0xFF AND DUP2 MSTORE PUSH1 0x20 PUSH1 0x1 SWAP3 DUP4 ADD DUP2 DUP2 DIV SWAP5 DUP6 ADD SWAP5 SWAP1 SWAP4 SUB SWAP1 SWAP3 MUL SWAP2 ADD DUP1 DUP5 GT PUSH2 0x20C7 JUMPI POP POP POP SWAP3 DUP5 MSTORE POP POP POP PUSH1 0x3 SWAP2 SWAP1 SWAP2 ADD SLOAD PUSH1 0xFF AND ISZERO ISZERO PUSH1 0x20 SWAP2 DUP3 ADD MSTORE SWAP1 DUP3 MSTORE PUSH1 0x1 SWAP3 SWAP1 SWAP3 ADD SWAP2 ADD PUSH2 0x2027 JUMP JUMPDEST POP POP POP POP SWAP1 POP PUSH1 0x0 JUMPDEST PUSH1 0x1 SLOAD PUSH1 0xFF AND DUP2 PUSH1 0xFF AND LT ISZERO PUSH2 0x216E JUMPI DUP3 DUP2 PUSH1 0xFF AND DUP2 MLOAD DUP2 LT PUSH2 0x214C JUMPI PUSH2 0x214C PUSH2 0x29FF JUMP JUMPDEST PUSH1 0x20 MUL PUSH1 0x20 ADD ADD MLOAD PUSH1 0x60 ADD MLOAD ISZERO PUSH2 0x2166 JUMPI PUSH1 0x0 SWAP4 POP PUSH2 0x216E JUMP JUMPDEST PUSH1 0x1 ADD PUSH2 0x2127 JUMP JUMPDEST POP DUP3 ISZERO PUSH2 0x2182 JUMPI PUSH1 0x1 SWAP6 POP POP POP POP POP PUSH2 0xC37 JUMP JUMPDEST PUSH1 0x1 SWAP3 POP PUSH1 0x0 JUMPDEST PUSH1 0x1 SLOAD PUSH1 0xFF AND DUP2 PUSH1 0xFF AND LT ISZERO PUSH2 0x21D0 JUMPI DUP2 DUP2 PUSH1 0xFF AND DUP2 MLOAD DUP2 LT PUSH2 0x21AE JUMPI PUSH2 0x21AE PUSH2 0x29FF JUMP JUMPDEST PUSH1 0x20 MUL PUSH1 0x20 ADD ADD MLOAD PUSH1 0x60 ADD MLOAD ISZERO PUSH2 0x21C8 JUMPI PUSH1 0x0 SWAP4 POP PUSH2 0x21D0 JUMP JUMPDEST PUSH1 0x1 ADD PUSH2 0x2189 JUMP JUMPDEST POP SWAP2 SWAP7 SWAP6 POP POP POP POP POP POP JUMP JUMPDEST PUSH1 0x4 SLOAD DUP3 SWAP1 PUSH1 0x1 PUSH1 0x1 PUSH1 0x40 SHL SUB SWAP1 DUP2 AND SWAP1 DUP3 AND LT PUSH2 0x220C JUMPI PUSH1 0x40 MLOAD PUSH3 0x461BCD PUSH1 0xE5 SHL DUP2 MSTORE PUSH1 0x4 ADD PUSH2 0x323 SWAP1 PUSH2 0x29C8 JUMP JUMPDEST DUP3 PUSH1 0x0 PUSH1 0x3 DUP3 PUSH1 0x1 PUSH1 0x1 PUSH1 0x40 SHL SUB AND DUP2 SLOAD DUP2 LT PUSH2 0x222B JUMPI PUSH2 0x222B PUSH2 0x29FF JUMP JUMPDEST PUSH1 0x0 SWAP2 DUP3 MSTORE PUSH1 0x20 SWAP1 SWAP2 KECCAK256 PUSH1 0x8 SWAP1 SWAP2 MUL ADD SWAP1 POP PUSH1 0x4 DUP1 DUP3 ADD SLOAD PUSH1 0xFF AND PUSH1 0x5 DUP2 GT ISZERO PUSH2 0x2257 JUMPI PUSH2 0x2257 PUSH2 0x25FA JUMP JUMPDEST EQ ISZERO DUP1 ISZERO PUSH2 0x227E JUMPI POP PUSH1 0x5 PUSH1 0x4 DUP3 ADD SLOAD PUSH1 0xFF AND PUSH1 0x5 DUP2 GT ISZERO PUSH2 0x227B JUMPI PUSH2 0x227B PUSH2 0x25FA JUMP JUMPDEST EQ ISZERO JUMPDEST PUSH2 0x22CA JUMPI PUSH1 0x40 MLOAD PUSH3 0x461BCD PUSH1 0xE5 SHL DUP2 MSTORE PUSH1 0x20 PUSH1 0x4 DUP3 ADD MSTORE PUSH1 0x17 PUSH1 0x24 DUP3 ADD MSTORE PUSH32 0x43757272656E742067616D652068617320656E6465642E000000000000000000 PUSH1 0x44 DUP3 ADD MSTORE PUSH1 0x64 ADD PUSH2 0x323 JUMP JUMPDEST PUSH1 0x0 PUSH1 0x3 DUP7 PUSH1 0x1 PUSH1 0x1 PUSH1 0x40 SHL SUB AND DUP2 SLOAD DUP2 LT PUSH2 0x22E8 JUMPI PUSH2 0x22E8 PUSH2 0x29FF JUMP JUMPDEST SWAP1 PUSH1 0x0 MSTORE PUSH1 0x20 PUSH1 0x0 KECCAK256 SWAP1 PUSH1 0x8 MUL ADD SWAP1 POP DUP5 DUP2 PUSH1 0x4 ADD PUSH1 0x0 PUSH2 0x100 EXP DUP2 SLOAD DUP2 PUSH1 0xFF MUL NOT AND SWAP1 DUP4 PUSH1 0x5 DUP2 GT ISZERO PUSH2 0x231E JUMPI PUSH2 0x231E PUSH2 0x25FA JUMP JUMPDEST MUL OR SWAP1 SSTORE POP TIMESTAMP PUSH1 0x6 DUP3 ADD SSTORE PUSH1 0x0 DUP6 PUSH1 0x5 DUP2 GT ISZERO PUSH2 0x233D JUMPI PUSH2 0x233D PUSH2 0x25FA JUMP JUMPDEST SUB PUSH2 0x2351 JUMPI PUSH1 0x6 DUP2 ADD SLOAD PUSH1 0x5 DUP3 ADD SSTORE PUSH2 0x2392 JUMP JUMPDEST PUSH1 0x4 DUP6 PUSH1 0x5 DUP2 GT ISZERO PUSH2 0x2365 JUMPI PUSH2 0x2365 PUSH2 0x25FA JUMP JUMPDEST EQ DUP1 PUSH2 0x2382 JUMPI POP PUSH1 0x5 DUP6 PUSH1 0x5 DUP2 GT ISZERO PUSH2 0x2380 JUMPI PUSH2 0x2380 PUSH2 0x25FA JUMP JUMPDEST EQ JUMPDEST ISZERO PUSH2 0x2392 JUMPI PUSH1 0x6 DUP2 ADD SLOAD PUSH1 0x7 DUP3 ADD SSTORE JUMPDEST POP POP POP POP POP POP JUMP JUMPDEST PUSH1 0x0 SLOAD PUSH1 0x1 PUSH1 0x1 PUSH1 0xA0 SHL SUB AND CALLER EQ PUSH2 0xF1A JUMPI PUSH1 0x40 MLOAD PUSH4 0x118CDAA7 PUSH1 0xE0 SHL DUP2 MSTORE CALLER PUSH1 0x4 DUP3 ADD MSTORE PUSH1 0x24 ADD PUSH2 0x323 JUMP JUMPDEST PUSH1 0x0 DUP1 SLOAD PUSH1 0x1 PUSH1 0x1 PUSH1 0xA0 SHL SUB DUP4 DUP2 AND PUSH1 0x1 PUSH1 0x1 PUSH1 0xA0 SHL SUB NOT DUP4 AND DUP2 OR DUP5 SSTORE PUSH1 0x40 MLOAD SWAP2 SWAP1 SWAP3 AND SWAP3 DUP4 SWAP2 PUSH32 0x8BE0079C531659141344CD1FD0A4F28419497F9722A3DAAFE3B4186F6B6457E0 SWAP2 SWAP1 LOG3 POP POP JUMP JUMPDEST PUSH1 0x1 DUP4 ADD SWAP2 DUP4 SWAP1 DUP3 ISZERO PUSH2 0x249A JUMPI SWAP2 PUSH1 0x20 MUL DUP3 ADD PUSH1 0x0 JUMPDEST DUP4 DUP3 GT ISZERO PUSH2 0x246B JUMPI DUP4 MLOAD DUP4 DUP3 PUSH2 0x100 EXP DUP2 SLOAD DUP2 PUSH1 0xFF MUL NOT AND SWAP1 DUP4 PUSH1 0xFF AND MUL OR SWAP1 SSTORE POP SWAP3 PUSH1 0x20 ADD SWAP3 PUSH1 0x1 ADD PUSH1 0x20 DUP2 PUSH1 0x0 ADD DIV SWAP3 DUP4 ADD SWAP3 PUSH1 0x1 SUB MUL PUSH2 0x242D JUMP JUMPDEST DUP1 ISZERO PUSH2 0x2498 JUMPI DUP3 DUP2 PUSH2 0x100 EXP DUP2 SLOAD SWAP1 PUSH1 0xFF MUL NOT AND SWAP1 SSTORE PUSH1 0x1 ADD PUSH1 0x20 DUP2 PUSH1 0x0 ADD DIV SWAP3 DUP4 ADD SWAP3 PUSH1 0x1 SUB MUL PUSH2 0x246B JUMP JUMPDEST POP JUMPDEST POP PUSH2 0x24A6 SWAP3 SWAP2 POP PUSH2 0x24C8 JUMP JUMPDEST POP SWAP1 JUMP JUMPDEST PUSH1 0x40 MLOAD DUP1 PUSH1 0x40 ADD PUSH1 0x40 MSTORE DUP1 PUSH1 0x2 SWAP1 PUSH1 0x20 DUP3 MUL DUP1 CALLDATASIZE DUP4 CALLDATACOPY POP SWAP2 SWAP3 SWAP2 POP POP JUMP JUMPDEST JUMPDEST DUP1 DUP3 GT ISZERO PUSH2 0x24A6 JUMPI PUSH1 0x0 DUP2 SSTORE PUSH1 0x1 ADD PUSH2 0x24C9 JUMP JUMPDEST DUP1 CALLDATALOAD PUSH1 0x1 PUSH1 0x1 PUSH1 0x40 SHL SUB DUP2 AND DUP2 EQ PUSH2 0x24F4 JUMPI PUSH1 0x0 DUP1 REVERT JUMPDEST SWAP2 SWAP1 POP JUMP JUMPDEST PUSH4 0x4E487B71 PUSH1 0xE0 SHL PUSH1 0x0 MSTORE PUSH1 0x41 PUSH1 0x4 MSTORE PUSH1 0x24 PUSH1 0x0 REVERT JUMPDEST DUP1 CALLDATALOAD PUSH1 0xFF DUP2 AND DUP2 EQ PUSH2 0x24F4 JUMPI PUSH1 0x0 DUP1 REVERT JUMPDEST PUSH1 0x0 DUP3 PUSH1 0x1F DUP4 ADD SLT PUSH2 0x2531 JUMPI PUSH1 0x0 DUP1 REVERT JUMPDEST PUSH1 0x40 MLOAD PUSH1 0x40 DUP2 ADD DUP2 DUP2 LT PUSH1 0x1 PUSH1 0x1 PUSH1 0x40 SHL SUB DUP3 GT OR ISZERO PUSH2 0x2561 JUMPI PUSH4 0x4E487B71 PUSH1 0xE0 SHL PUSH1 0x0 MSTORE PUSH1 0x41 PUSH1 0x4 MSTORE PUSH1 0x24 PUSH1 0x0 REVERT JUMPDEST DUP1 PUSH1 0x40 MSTORE POP DUP1 PUSH1 0x40 DUP5 ADD DUP6 DUP2 GT ISZERO PUSH2 0x2578 JUMPI PUSH1 0x0 DUP1 REVERT JUMPDEST DUP5 JUMPDEST DUP2 DUP2 LT ISZERO PUSH2 0x2599 JUMPI PUSH2 0x258B DUP2 PUSH2 0x250F JUMP JUMPDEST DUP4 MSTORE PUSH1 0x20 SWAP3 DUP4 ADD SWAP3 ADD PUSH2 0x257A JUMP JUMPDEST POP SWAP2 SWAP6 SWAP5 POP POP POP POP POP JUMP JUMPDEST PUSH1 0x0 DUP1 PUSH1 0x60 DUP4 DUP6 SUB SLT ISZERO PUSH2 0x25B7 JUMPI PUSH1 0x0 DUP1 REVERT JUMPDEST PUSH2 0x25C0 DUP4 PUSH2 0x24DD JUMP JUMPDEST SWAP2 POP PUSH2 0x25CF DUP5 PUSH1 0x20 DUP6 ADD PUSH2 0x2520 JUMP JUMPDEST SWAP1 POP SWAP3 POP SWAP3 SWAP1 POP JUMP JUMPDEST PUSH1 0x0 PUSH1 0x20 DUP3 DUP5 SUB SLT ISZERO PUSH2 0x25EA JUMPI PUSH1 0x0 DUP1 REVERT JUMPDEST PUSH2 0x25F3 DUP3 PUSH2 0x24DD JUMP JUMPDEST SWAP4 SWAP3 POP POP POP JUMP JUMPDEST PUSH4 0x4E487B71 PUSH1 0xE0 SHL PUSH1 0x0 MSTORE PUSH1 0x21 PUSH1 0x4 MSTORE PUSH1 0x24 PUSH1 0x0 REVERT JUMPDEST PUSH1 0x6 DUP2 LT PUSH2 0x262E JUMPI PUSH4 0x4E487B71 PUSH1 0xE0 SHL PUSH1 0x0 MSTORE PUSH1 0x21 PUSH1 0x4 MSTORE PUSH1 0x24 PUSH1 0x0 REVERT JUMPDEST SWAP1 MSTORE JUMP JUMPDEST PUSH1 0x1 DUP1 PUSH1 0xA0 SHL SUB DUP1 DUP3 MLOAD AND DUP4 MSTORE DUP1 PUSH1 0x20 DUP4 ADD MLOAD AND PUSH1 0x20 DUP5 ADD MSTORE POP PUSH1 0x40 DUP2 ADD MLOAD PUSH2 0x265E PUSH1 0x40 DUP5 ADD DUP3 PUSH2 0x2610 JUMP JUMPDEST POP PUSH1 0x60 DUP2 ADD MLOAD PUSH1 0x60 DUP4 ADD MSTORE PUSH1 0x80 DUP2 ADD MLOAD PUSH1 0x80 DUP4 ADD MSTORE PUSH1 0xA0 DUP2 ADD MLOAD PUSH1 0xA0 DUP4 ADD MSTORE POP POP JUMP JUMPDEST PUSH1 0xC0 DUP2 ADD PUSH2 0x268F DUP3 DUP5 PUSH2 0x2632 JUMP JUMPDEST SWAP3 SWAP2 POP POP JUMP JUMPDEST DUP1 PUSH1 0x0 JUMPDEST PUSH1 0x2 DUP2 LT ISZERO PUSH2 0x26BB JUMPI DUP2 MLOAD PUSH1 0xFF AND DUP5 MSTORE PUSH1 0x20 SWAP4 DUP5 ADD SWAP4 SWAP1 SWAP2 ADD SWAP1 PUSH1 0x1 ADD PUSH2 0x2699 JUMP JUMPDEST POP POP POP POP JUMP JUMPDEST PUSH1 0x40 DUP2 ADD PUSH2 0x268F DUP3 DUP5 PUSH2 0x2695 JUMP JUMPDEST DUP1 CALLDATALOAD PUSH1 0x1 PUSH1 0x1 PUSH1 0xA0 SHL SUB DUP2 AND DUP2 EQ PUSH2 0x24F4 JUMPI PUSH1 0x0 DUP1 REVERT JUMPDEST PUSH1 0x0 DUP1 PUSH1 0x40 DUP4 DUP6 SUB SLT ISZERO PUSH2 0x26F9 JUMPI PUSH1 0x0 DUP1 REVERT JUMPDEST PUSH2 0x2702 DUP4 PUSH2 0x24DD JUMP JUMPDEST SWAP2 POP PUSH2 0x25CF PUSH1 0x20 DUP5 ADD PUSH2 0x26CF JUMP JUMPDEST PUSH1 0x20 DUP1 DUP3 MSTORE DUP3 MLOAD DUP3 DUP3 ADD DUP2 SWAP1 MSTORE PUSH1 0x0 SWAP2 SWAP1 PUSH1 0x40 SWAP1 DUP2 DUP6 ADD SWAP1 DUP7 DUP5 ADD DUP6 JUMPDEST DUP3 DUP2 LT ISZERO PUSH2 0x2786 JUMPI DUP2 MLOAD PUSH1 0x1 PUSH1 0x1 PUSH1 0x40 SHL SUB DUP2 MLOAD AND DUP6 MSTORE DUP7 DUP2 ADD MLOAD PUSH2 0x2754 DUP9 DUP8 ADD DUP3 PUSH2 0x2695 JUMP JUMPDEST POP DUP6 DUP2 ADD MLOAD PUSH1 0x60 PUSH2 0x2767 DUP2 DUP9 ADD DUP4 PUSH2 0x2695 JUMP JUMPDEST SWAP2 SWAP1 SWAP2 ADD MLOAD ISZERO ISZERO PUSH1 0xA0 DUP7 ADD MSTORE POP PUSH1 0xC0 SWAP1 SWAP4 ADD SWAP3 SWAP1 DUP6 ADD SWAP1 PUSH1 0x1 ADD PUSH2 0x272D JUMP JUMPDEST POP SWAP2 SWAP8 SWAP7 POP POP POP POP POP POP POP JUMP JUMPDEST PUSH1 0x0 PUSH1 0x20 DUP3 DUP5 SUB SLT ISZERO PUSH2 0x27A5 JUMPI PUSH1 0x0 DUP1 REVERT JUMPDEST POP CALLDATALOAD SWAP2 SWAP1 POP JUMP JUMPDEST PUSH1 0x0 DUP2 MLOAD DUP1 DUP5 MSTORE PUSH1 0x0 JUMPDEST DUP2 DUP2 LT ISZERO PUSH2 0x27D2 JUMPI PUSH1 0x20 DUP2 DUP6 ADD DUP2 ADD MLOAD DUP7 DUP4 ADD DUP3 ADD MSTORE ADD PUSH2 0x27B6 JUMP JUMPDEST POP PUSH1 0x0 PUSH1 0x20 DUP3 DUP7 ADD ADD MSTORE PUSH1 0x20 PUSH1 0x1F NOT PUSH1 0x1F DUP4 ADD AND DUP6 ADD ADD SWAP2 POP POP SWAP3 SWAP2 POP POP JUMP JUMPDEST PUSH1 0x20 DUP2 MSTORE PUSH1 0x0 PUSH2 0x25F3 PUSH1 0x20 DUP4 ADD DUP5 PUSH2 0x27AC JUMP JUMPDEST PUSH1 0x0 DUP1 PUSH1 0x0 DUP1 PUSH1 0xC0 DUP6 DUP8 SUB SLT ISZERO PUSH2 0x281B JUMPI PUSH1 0x0 DUP1 REVERT JUMPDEST PUSH2 0x2824 DUP6 PUSH2 0x24DD JUMP JUMPDEST SWAP4 POP PUSH2 0x2832 PUSH1 0x20 DUP7 ADD PUSH2 0x250F JUMP JUMPDEST SWAP3 POP PUSH2 0x2841 DUP7 PUSH1 0x40 DUP8 ADD PUSH2 0x2520 JUMP JUMPDEST SWAP2 POP PUSH2 0x2850 DUP7 PUSH1 0x80 DUP8 ADD PUSH2 0x2520 JUMP JUMPDEST SWAP1 POP SWAP3 SWAP6 SWAP2 SWAP5 POP SWAP3 POP JUMP JUMPDEST PUSH1 0x0 PUSH1 0x20 DUP1 DUP4 ADD DUP2 DUP5 MSTORE DUP1 DUP6 MLOAD DUP1 DUP4 MSTORE PUSH1 0x40 DUP7 ADD SWAP2 POP PUSH1 0x40 DUP2 PUSH1 0x5 SHL DUP8 ADD ADD SWAP3 POP DUP4 DUP8 ADD PUSH1 0x0 JUMPDEST DUP3 DUP2 LT ISZERO PUSH2 0x28D0 JUMPI PUSH1 0x3F NOT DUP9 DUP7 SUB ADD DUP5 MSTORE DUP2 MLOAD PUSH1 0x60 DUP2 MLOAD DUP2 DUP9 MSTORE PUSH2 0x28A8 DUP3 DUP10 ADD DUP3 PUSH2 0x27AC JUMP JUMPDEST SWAP2 POP POP DUP8 DUP3 ADD MLOAD SWAP2 POP PUSH2 0x28BD DUP9 DUP9 ADD DUP4 PUSH2 0x2695 JUMP JUMPDEST SWAP6 POP POP SWAP3 DUP6 ADD SWAP3 SWAP1 DUP6 ADD SWAP1 PUSH1 0x1 ADD PUSH2 0x2882 JUMP JUMPDEST POP SWAP3 SWAP8 SWAP7 POP POP POP POP POP POP POP JUMP JUMPDEST PUSH1 0x1 PUSH1 0x1 PUSH1 0xA0 SHL SUB DUP8 DUP2 AND DUP3 MSTORE DUP7 AND PUSH1 0x20 DUP3 ADD MSTORE PUSH1 0xC0 DUP2 ADD PUSH2 0x2902 PUSH1 0x40 DUP4 ADD DUP8 PUSH2 0x2610 JUMP JUMPDEST DUP5 PUSH1 0x60 DUP4 ADD MSTORE DUP4 PUSH1 0x80 DUP4 ADD MSTORE DUP3 PUSH1 0xA0 DUP4 ADD MSTORE SWAP8 SWAP7 POP POP POP POP POP POP POP JUMP JUMPDEST PUSH1 0x20 DUP1 DUP3 MSTORE DUP3 MLOAD DUP3 DUP3 ADD DUP2 SWAP1 MSTORE PUSH1 0x0 SWAP2 SWAP1 PUSH1 0x40 SWAP1 DUP2 DUP6 ADD SWAP1 DUP7 DUP5 ADD DUP6 JUMPDEST DUP3 DUP2 LT ISZERO PUSH2 0x2786 JUMPI PUSH2 0x294F DUP5 DUP4 MLOAD PUSH2 0x2695 JUMP JUMPDEST SWAP3 DUP5 ADD SWAP3 SWAP1 DUP6 ADD SWAP1 PUSH1 0x1 ADD PUSH2 0x293C JUMP JUMPDEST PUSH1 0x20 DUP1 DUP3 MSTORE DUP3 MLOAD DUP3 DUP3 ADD DUP2 SWAP1 MSTORE PUSH1 0x0 SWAP2 SWAP1 DUP5 DUP3 ADD SWAP1 PUSH1 0x40 DUP6 ADD SWAP1 DUP5 JUMPDEST DUP2 DUP2 LT ISZERO PUSH2 0x29A1 JUMPI PUSH2 0x298E DUP4 DUP6 MLOAD PUSH2 0x2632 JUMP JUMPDEST SWAP3 DUP5 ADD SWAP3 PUSH1 0xC0 SWAP3 SWAP1 SWAP3 ADD SWAP2 PUSH1 0x1 ADD PUSH2 0x297B JUMP JUMPDEST POP SWAP1 SWAP7 SWAP6 POP POP POP POP POP POP JUMP JUMPDEST PUSH1 0x0 PUSH1 0x20 DUP3 DUP5 SUB SLT ISZERO PUSH2 0x29BF JUMPI PUSH1 0x0 DUP1 REVERT JUMPDEST PUSH2 0x25F3 DUP3 PUSH2 0x26CF JUMP JUMPDEST PUSH1 0x20 DUP1 DUP3 MSTORE PUSH1 0x17 SWAP1 DUP3 ADD MSTORE PUSH32 0x726F756E644964206973206F7574206F6620626F756E64000000000000000000 PUSH1 0x40 DUP3 ADD MSTORE PUSH1 0x60 ADD SWAP1 JUMP JUMPDEST PUSH4 0x4E487B71 PUSH1 0xE0 SHL PUSH1 0x0 MSTORE PUSH1 0x32 PUSH1 0x4 MSTORE PUSH1 0x24 PUSH1 0x0 REVERT JUMPDEST PUSH4 0x4E487B71 PUSH1 0xE0 SHL PUSH1 0x0 MSTORE PUSH1 0x11 PUSH1 0x4 MSTORE PUSH1 0x24 PUSH1 0x0 REVERT JUMPDEST PUSH1 0xFF DUP3 DUP2 AND DUP3 DUP3 AND SUB SWAP1 DUP2 GT ISZERO PUSH2 0x268F JUMPI PUSH2 0x268F PUSH2 0x2A15 JUMP JUMPDEST PUSH1 0xFF DUP2 DUP2 AND DUP4 DUP3 AND ADD SWAP1 DUP2 GT ISZERO PUSH2 0x268F JUMPI PUSH2 0x268F PUSH2 0x2A15 JUMP JUMPDEST PUSH1 0xFF DUP2 DUP2 AND DUP4 DUP3 AND MUL SWAP1 DUP2 AND SWAP1 DUP2 DUP2 EQ PUSH2 0xE21 JUMPI PUSH2 0xE21 PUSH2 0x2A15 JUMP JUMPDEST PUSH1 0x60 DUP2 ADD PUSH2 0x2A87 DUP3 DUP6 PUSH2 0x2695 JUMP JUMPDEST PUSH2 0x25F3 PUSH1 0x40 DUP4 ADD DUP5 PUSH2 0x2610 JUMP JUMPDEST PUSH1 0x20 DUP1 DUP3 MSTORE PUSH1 0x23 SWAP1 DUP3 ADD MSTORE PUSH32 0x5468652067616D65206973206E6F7420696E2069747320746172676574207374 PUSH1 0x40 DUP3 ADD MSTORE PUSH3 0x617465 PUSH1 0xE8 SHL PUSH1 0x60 DUP3 ADD MSTORE PUSH1 0x80 ADD SWAP1 JUMP JUMPDEST PUSH1 0x1 DUP2 DUP2 SHR SWAP1 DUP3 AND DUP1 PUSH2 0x2AEB JUMPI PUSH1 0x7F DUP3 AND SWAP2 POP JUMPDEST PUSH1 0x20 DUP3 LT DUP2 SUB PUSH2 0xC37 JUMPI PUSH4 0x4E487B71 PUSH1 0xE0 SHL PUSH1 0x0 MSTORE PUSH1 0x22 PUSH1 0x4 MSTORE PUSH1 0x24 PUSH1 0x0 REVERT JUMPDEST PUSH1 0x1 DUP2 DUP2 JUMPDEST DUP1 DUP6 GT ISZERO PUSH2 0x2B46 JUMPI DUP2 PUSH1 0x0 NOT DIV DUP3 GT ISZERO PUSH2 0x2B2C JUMPI PUSH2 0x2B2C PUSH2 0x2A15 JUMP JUMPDEST DUP1 DUP6 AND ISZERO PUSH2 0x2B39 JUMPI SWAP2 DUP2 MUL SWAP2 JUMPDEST SWAP4 DUP5 SHR SWAP4 SWAP1 DUP1 MUL SWAP1 PUSH2 0x2B10 JUMP JUMPDEST POP SWAP3 POP SWAP3 SWAP1 POP JUMP JUMPDEST PUSH1 0x0 DUP3 PUSH2 0x2B5D JUMPI POP PUSH1 0x1 PUSH2 0x268F JUMP JUMPDEST DUP2 PUSH2 0x2B6A JUMPI POP PUSH1 0x0 PUSH2 0x268F JUMP JUMPDEST DUP2 PUSH1 0x1 DUP2 EQ PUSH2 0x2B80 JUMPI PUSH1 0x2 DUP2 EQ PUSH2 0x2B8A JUMPI PUSH2 0x2BA6 JUMP JUMPDEST PUSH1 0x1 SWAP2 POP POP PUSH2 0x268F JUMP JUMPDEST PUSH1 0xFF DUP5 GT ISZERO PUSH2 0x2B9B JUMPI PUSH2 0x2B9B PUSH2 0x2A15 JUMP JUMPDEST POP POP PUSH1 0x1 DUP3 SHL PUSH2 0x268F JUMP JUMPDEST POP PUSH1 0x20 DUP4 LT PUSH2 0x133 DUP4 LT AND PUSH1 0x4E DUP5 LT PUSH1 0xB DUP5 LT AND OR ISZERO PUSH2 0x2BC9 JUMPI POP DUP2 DUP2 EXP PUSH2 0x268F JUMP JUMPDEST PUSH2 0x2BD3 DUP4 DUP4 PUSH2 0x2B0B JUMP JUMPDEST DUP1 PUSH1 0x0 NOT DIV DUP3 GT ISZERO PUSH2 0x2BE7 JUMPI PUSH2 0x2BE7 PUSH2 0x2A15 JUMP JUMPDEST MUL SWAP4 SWAP3 POP POP POP JUMP JUMPDEST PUSH1 0x0 PUSH2 0x25F3 PUSH1 0xFF DUP5 AND DUP4 PUSH2 0x2B4E JUMP JUMPDEST PUSH1 0x1 PUSH1 0x1 PUSH1 0x40 SHL SUB DUP3 DUP2 AND DUP3 DUP3 AND SUB SWAP1 DUP1 DUP3 GT ISZERO PUSH2 0xE21 JUMPI PUSH2 0xE21 PUSH2 0x2A15 JUMP JUMPDEST PUSH1 0x0 PUSH1 0x1 PUSH1 0x1 PUSH1 0x40 SHL SUB DUP1 DUP4 AND DUP2 DUP2 SUB PUSH2 0x2C3A JUMPI PUSH2 0x2C3A PUSH2 0x2A15 JUMP JUMPDEST PUSH1 0x1 ADD SWAP4 SWAP3 POP POP POP JUMP JUMPDEST PUSH1 0x20 DUP1 DUP3 MSTORE PUSH1 0x25 SWAP1 DUP3 ADD MSTORE PUSH32 0x706C61796572203120736869707320617265206E6F742070726F7065726C7920 PUSH1 0x40 DUP3 ADD MSTORE PUSH5 0x736574757 PUSH1 0xDC SHL PUSH1 0x60 DUP3 ADD MSTORE PUSH1 0x80 ADD SWAP1 JUMP JUMPDEST PUSH1 0x20 DUP1 DUP3 MSTORE PUSH1 0x25 SWAP1 DUP3 ADD MSTORE PUSH32 0x706C61796572203220736869707320617265206E6F742070726F7065726C7920 PUSH1 0x40 DUP3 ADD MSTORE PUSH5 0x736574757 PUSH1 0xDC SHL PUSH1 0x60 DUP3 ADD MSTORE PUSH1 0x80 ADD SWAP1 JUMP INVALID LOG2 PUSH5 0x6970667358 0x22 SLT KECCAK256 0xAC PUSH13 0x432C9C7484B318BE4FF829212A 0xFB 0xB3 BALANCE 0x4C 0xEA 0x2D PUSH18 0x1307E0D6BA1C61EC864664736F6C63430008 XOR STOP CALLER "
        },
        "methodIdentifiers": {
          "boardSize(uint256)": "605aa499",
          "getAllRounds()": "e5066bbf",
          "getBoardSize()": "1668dbc3",
          "getRound(uint64)": "144d0229",
          "getRoundMoves(uint64,address)": "e452b4aa",
          "getRoundShips(uint64,address)": "4861c57b",
          "getShipTypeNum()": "43dcb1fb",
          "getShipTypes()": "81f41721",
          "newGame()": "7d03f5f3",
          "nextRoundId()": "4002eda6",
          "owner()": "8da5cb5b",
          "p2join(uint64)": "0e9ec7b1",
          "playerMove(uint64,uint8[2])": "0704df53",
          "renounceOwnership()": "715018a6",
          "rounds(uint256)": "8c65c81f",
          "setupShips(uint64,uint8,uint8[2],uint8[2])": "7425039e",
          "shipTypes(uint256)": "4ad25a33",
          "startGame(uint64)": "bbf3fa8b",
          "transferOwnership(address)": "f2fde38b"
        }
      }
    }
  }
}